:040FF800008007006E
:040FFC0000E007000A
:0200000270008C
:1080000000000120B5820700DD820700DF82070043
:10801000E1820700E3820700E5820700000000001C
:10802000000000000000000000000000B1C00700D8
:10803000E982070000000000EB820700ED820700E4
:10804000EF820700EF820700EF820700EF82070050
:10805000EF820700EF820700EF820700EF82070040
:10806000EF820700EF820700EF820700EF82070030
:10807000EF820700EF820700EF820700EF82070020
:10808000E5A40700EF820700EF820700EF820700F8
:10809000EF820700EF820700ADC20700EF82070002
:1080A000EF820700EF820700EF820700EF820700F0
:1080B000EF820700EF8207000000000000000000D0
:1080C000EF820700EF820700EF820700EF820700D0
:1080D00095A10700EF820700EF8207000000000073
:1080E0000000000000000000000000000000000090
:1080F0000000000000000000000000000000000080
:10810000000000000000000000000000000000006F
:10811000000000000000000000000000000000005F
:10812000000000000000000000000000000000004F
:10813000000000000000000000000000000000003F
:10814000000000000000000000000000000000002F
:10815000000000000000000000000000000000001F
:10816000000000000000000000000000000000000F
:1081700000000000000000000000000000000000FF
:1081800000000000000000000000000000000000EF
:1081900000000000000000000000000000000000DF
:1081A00000000000000000000000000000000000CF
:1081B00000000000000000000000000000000000BF
:1081C00000000000000000000000000000000000AF
:1081D000000000000000000000000000000000009F
:1081E000000000000000000000000000000000008F
:1081F000000000000000000000000000000000007F
:1082000010B5054C237833B9044B13B10448AFF3D0
:1082100000800123237010BD6C5800200000000076
:108220008CD9070008B5034B1BB103490348AFF3D2
:10823000008008BD00000000705800208CD90700A5
:10824000154B002B08BF134B9D46A3F5803A002128
:108250008B460F461348144A121A05F017F90F4BB4
:10826000002B00D098470E4B002B00D098470020E1
:10827000002104000D000D48002802D00C48AFF387
:10828000008005F0C5F82000290001F043F905F051
:10829000ABF800BF00000800000001200000000053
:1082A000000000006C580020387E00200000000014
:1082B000000000000649074A074B9B1A03DD043BF8
:1082C000C858D050FBDC00F04DF8FFF7B9FF0000B4
:1082D000F0D90700B85700206C580020FEE7FEE7F1
:1082E000FEE7FEE7FEE7FEE7FEE7FEE7FEE7FEE766
:1082F0000C4B1B78062B10D10B4B1B681A070CD1AB
:108300000A4B186800F0F003302B08D000F0E000B2
:10831000A0F14003584258417047002070470120A7
:10832000704700BFE00F00F0E40F00F0E80F00F02E
:10833000094B1B78062B0CD1084B1B681A0708D178
:10834000074B186800F0F000A0F130035842584184
:1083500070470020704700BFE00F00F0E40F00F00E
:10836000E80F00F008B5FFF7C3FF28B17D4B7E4A48
:108370001B68C3F304231360FFF7DAFF10B17B4BD4
:108380007B4A1A60FFF7B4FF28B17A4B7A4A1B6820
:10839000C3F342331360FFF7CBFF20B1774AD368B2
:1083A00023F08073D360FFF7A3FF40B14FF0804309
:1083B0000022C3F80C21C3F81021C3F83825FFF7B9
:1083C000B7FF10B16E4B03221A60FFF7B1FF40B147
:1083D0006C4B05221A6001229A6700229A603F22A4
:1083E0005A60694B1B78062B50D1684B1B681907E4
:1083F0004CD1674B1B6803F0F003502B46D14FF074
:108400008052644BD2F80414C3F82015D2F8081433
:10841000C3F82415D2F80C14C3F82815D2F8101498
:10842000C3F82C15D2F81414C3F83015D2F8181468
:10843000C3F83415D2F81C14C3F84015D2F8201430
:10844000C3F84415D2F82414C3F84815D2F82814F8
:10845000C3F84C15D2F82C14C3F85015D2F83014C8
:10846000C3F85415D2F83414C3F86015D2F8381490
:10847000C3F86415D2F83C14C3F86815D2F8401458
:10848000C3F86C15D2F84424C3F87025FFF730FF09
:1084900028B1414B414A1B6803F04F031360FFF7BB
:1084A00027FF48B14FF08043D3F80024D20744BFE0
:1084B0006FF00102C3F80024394B1B68062B08D16A
:1084C000384B1B68062B01BF374A136843F480639F
:1084D0001360364AD2F8883043F47003C2F888300B
:1084E000BFF34F8FBFF36F8F4FF01023D3F80022ED
:1084F000002A03DBD3F80432002B2FDA2C4B0122A5
:10850000C3F80425D3F80024002AFBD04FF0102232
:108510001521C2F80012D3F80024002AFBD04FF036
:1085200010231522C3F80422214B1A46D3F8001455
:108530000029FBD00021C3F80415D2F80034002B29
:10854000FBD0BFF34F8F19491A4BCA6802F4E0629F
:108550001343CB60BFF34F8F00BFFDE7164B174AA5
:108560001A6008BD240300104035014074C0074064
:108570000DF0ADBA440200103C050040F0ED00E003
:10858000A005004010560040E00F00F0E40F00F09E
:10859000E80F00F000C0004058020010E40E004058
:1085A00030010010340100103C17004000ED00E0E5
:1085B00000E001400400FA05B85700200090D00305
:1085C00012F0030310B511D1094C22604C1CE400D9
:1085D000A4B22244074C2260074A1370074A137062
:1085E000074A1080074A1846118010BD0720FCE793
:1085F000905800208C58002088580020985800205F
:1086000094580020965800202DE9F3472B4D2B88D5
:108610008B4206460C4617464BD302A84FF0000883
:1086200000F8018D00F088F8254B264A187811785B
:10863000CBB2254909888B4238BF0133C0B238BF5D
:108640005FFA83F840452ED092F800801378DBB2B1
:10865000994286BF0133DBB2002313709DF80700F7
:1086600000F08EF84FF6FF73984524D0DFF860A035
:10867000DAF800304FEAC80903EB090243F8387012
:10868000A6B19CB1114B28881B68224608FB00301C
:10869000314604F0F0FEDAF800304B4400209C80B4
:1086A00002B0BDE8F0874FF6FF78D7E70020908052
:1086B000F6E70920F4E70420F2E700BF9458002011
:1086C0009858002088580020965800208C58002088
:1086D00090580020F8B5124C124D264622782B787F
:1086E0009A4200D1F8BD23780F48104A07881268D3
:1086F0000F48DBB219B202EBC10C006852F831200E
:10870000BCF8041003FB070090470A4A237812883C
:10871000DBB29A4286BF0133DBB200233370DDE760
:108720009858002088580020945800209058002025
:108730008C5800209658002070B5EFF3108672B662
:108740000C4A946801239CB993600B4B0B4DD3F8F2
:10875000801029401160C3F88050D3F88410516014
:108760004FF0FF32C3F88420047006B962B670BDC2
:108770000370FAE7AC7A002000E100E0FC06FFBDE0
:1087800010B5084B9A685AB150B9EFF3108172B620
:10879000054A1C6814605C685460986001B962B650
:1087A00010BD00BFAC7A002000E100E030B53AB166
:1087B0001368DB430A4D0144884204D1D84330BDDD
:1087C0004FF0FF33F6E710F8012B5340082213F067
:1087D000010418BF2C46013A84EA5303F7D1EBE7B2
:1087E0002083B8ED10B561B1B2FBF3F403FB1424A0
:1087F000A4B244B9C0E9001484608281C3812046D8
:1088000010BD0E20FCE70920FAE782B050E8022FE5
:10881000C188B2EB324F4FF0000317BF92B241EA6A
:10882000014142EA014104E04268B2EB324F08BF25
:10883000012340E80212002AE8D18DF807309DF8A4
:108840000730002B0CBF1120002002B0704737B555
:1088500050E8013F9DB2C48925448489A54228BFC0
:108860002D1B0489A54202BFBFF32F8F002207E012
:10887000C5EA030540E80154002CE9D14FF001029C
:108880008DF803200193019B9DF803200B6002F0FB
:10889000FF0322B10B880068184403B030BD1846AE
:1088A000FBE70A884B889A4209D150E8012FC2EAB7
:1088B000024240E80123002BF7D10120704700203D
:1088C000704737B550E8023F1FFAA3F5C488A542A8
:1088D00002BFBFF32F8F00220DE0C4892544848995
:1088E000A54228BF2D1BC3EA054540E80254002CD1
:1088F000E8D14FF001028DF803200193019B9DF810
:1089000003200B6002F0FF0322B14B88006818447B
:1089100003B030BD1846FBE70A884B889A4209D15C
:1089200050E8022FC2EA224240E80223002BF7D18E
:10893000012070470020704750E8002F42EA0103F1
:1089400040E8003C9CF0000FF6D11046704750E81C
:10895000003F03EA010240E8002C9CF0000FF6D132
:10896000104670470121FFF7E7BF0021FFF7EFBF77
:1089700010B590B1D0E9012301689B1ADBB20A60FF
:10898000013BDBB2FF2B026802D10020107110BD49
:1089900011684C1C14600B70F2E70E20F7E737B536
:1089A000054602A8002400F8014DFFF7C5FE2A681D
:1089B000696813688B4210D9591E116013F8014C75
:1089C0002A8AEB6802FB04342A68AB6811685B1AD8
:1089D0001179DBB2994238BF13719DF80700FFF798
:1089E000CFFE204603B030BD37B5054602A80023B0
:1089F00000F8013D0C46FFF79FFE2A681368591CDA
:108A00001160E968641A298AB4FBF1F41C709DF8BE
:108A10000700FFF7B5FE03B030BD01600B681146DB
:108A2000184710B40468E468A4465DF8044B604736
:108A300010B404682469A4465DF8044B6047000044
:108A40002DE9F04108B10368C3B90E4E0E4B142254
:108A50009B1B0024B3FBF2F3374602FB03F5A54250
:108A600001D1002008E03B5930190BB91434F6E766
:108A7000DB6998470028F9D0BDE8F081DB69BDE8E3
:108A8000F0411847585800206C580020014B4360B3
:108A900000207047C8D40700084670470020704780
:108AA000024B1868003018BF012070479C58002006
:108AB00008B50248FFF759FF002008BD9C58002068
:108AC00008B510461A4604F0D6FC002008BD000088
:108AD0002DE9F041804686B013480E4615461F46E4
:108AE000FFF740FF044630B1112018E006EB0430D8
:108AF00000F0A0FB0134A542F8D10B48FFF735FF89
:108B0000D8F8083000246BB1022268468DF80020A6
:108B1000CDE90146CDE9034505979847204606B0C3
:108B2000BDE8F0811846FAE79C5800202DE9F04195
:108B3000804686B012480F4616461D46FFF712FFC4
:108B40000446D8B9AA083146384600F08BFB0C48D9
:108B5000FFF70BFFD8F8083073B101228DF8002021
:108B60000C9A05926846CDE90147CDE9036598471F
:108B7000204606B0BDE8F0811846FAE71120F8E774
:108B80009C58002029DF704728DF704770B50568C2
:108B9000AB6886B004460E4673B1142200216846C5
:108BA00004F074FCA36805932379019633B1012B7B
:108BB0000ED0AB686846984706B070BD01238DF8AB
:108BC000003023690293E368039363690493F0E739
:108BD00002238DF80030E3681B030293F5E7084693
:108BE0007047002070470000024B187A003018BF11
:108BF000012070478C5A0020034B187A0122B0FAEA
:108C000080F05A74400970478C5A002008B510460D
:108C10001A4604F030FC002008BD000008B51422FC
:108C20000021044804F032FC0348FFF7EEFD002069
:108C300008BD00BF8C5A00207C5A002010B5094C9A
:108C4000094B43602046FFF78DFE48B903F014FB43
:108C50001C2320744FF4EE7204490548FFF7C2FD4F
:108C6000002010BD8C5A0020F4D40700A05800202A
:108C70007C5A002070B5234D234E2B7A2C463BB9ED
:108C800022492348FFF71DFE306008B9686070BDB7
:108C90000223237233681A7972B1012A22D018464E
:108CA0000321FFF773FF00232372636017491848FD
:108CB000BDE87040FFF730BED3E90520121A142A30
:108CC00028BF1422D3E903159208012A014438BFB2
:108CD00001222844FFF756FF50B11128DFD10123AC
:108CE0002372D4E7D3E903021044FFF74DFFF3E703
:108CF000237C002BCBD10146BDE87040022000F060
:108D000009B800BF8C5A0020A45A0020A05A0020A5
:108D10007C5A002038B5831E012B43D8224C237A7D
:108D2000002B3FD0022B09D103282ED01F4B00224D
:108D30001B68E2601A793AB1012A20D0637C6BBBD0
:108D4000BDE83840FFF796BFD3E905128D1A142D00
:108D500094BF521914329A619142EFD102284FF018
:108D6000000308BF19462372104B18BF0D21186865
:108D7000FFF70CFF0E490F48FFF7CEFDDEE71A693B
:108D800001321A615B699A42E7E7E3680133082B15
:108D900001D8E360D2E70023E360DFE7BDE83840B5
:108DA00003F05ABA38BD00BF8C5A0020A45A0020E4
:108DB000A05A00207C5A002000F0FD03012B08D1AE
:108DC000044B00225A74421E504250411874FFF75F
:108DD00051BF70478C5A002010B5064C201DFFF77C
:108DE000C1FD28B9637C1BB9BDE81040FFF742BF45
:108DF00010BD00BF8C5A00202DE9F34180460D467E
:108E00000F4801A916461F46FFF721FD0446A8B1E9
:108E10001C22002104F03AFB2D0B0123237101A930
:108E2000C4F80080A760E56066610548FFF739FD7A
:108E3000FFF7D2FF002002B0BDE8F0810420FAE77E
:108E40007C5A00202DE9F74381468846104801A945
:108E500017461E46FFF7FBFC0446B0B11C2200215A
:108E600004F014FB00250A9BA36001A92571C4F836
:108E70000090C4E9037866610548FFF712FDFFF72B
:108E8000ABFF284603B0BDE8F0830420FAE700BF3B
:108E90007C5A002001600B6843604A68934204BF1B
:108EA000002343607047436843B1026891680B44F4
:108EB00043605268934204BF002343607047000040
:108EC0002DE9F04F0022C9B04B780C781B0443EA1F
:108ED0000463CC7823438C7843EA042308AC043140
:108EE000A3500432402AEFD1234638AD996B1E4679
:108EF0004FEAF14282EA714282EA9122716A36684F
:108F000053F8044F31440A444FEAB44181EAF41162
:108F100081EAD4010A449D42DA63E7D1036D0093EC
:108F2000436D0193836D0293C36D0393036E0493AA
:108F3000436E0593836E0693DDE905ECC36E009CDA
:108F4000DFF8AC900793DDE90381DDE901659B461D
:108F500000274FEAF12383EAB11383EA716A59F8D3
:108F600027301A4608AB53F827301A4413465344A7
:108F70002CEA010201EA0E0A82EA0A021A444FEAC6
:108F8000743A86EA05035A448AEAB40A06EA050BEB
:108F9000234083EA0B038AEAB45A01379A44402FEC
:108FA00002EB0803E3465244A8461AD1009F174437
:108FB000019A076522444265029A32448265039A07
:108FC0002A44C265049A1A44059B02660B44436610
:108FD000069B73448366079B6344C36649B0BDE840
:108FE000F08FF44635468E46264619461446B0E7BD
:108FF00020D5070030B5E0B10F4A10490024002504
:10900000C0E91245C0E914120D4C0E4A0E4DC0E9DC
:1090100016420E4AC0E918520D4A826602F1745295
:10902000A2F523020023A2F692420364C266184608
:1090300030BD0E20FCE700BF85AE67BB67E6096A5E
:1090400072F36E3C3AF54FA57F520E518C68059B2A
:10905000ABD9831FF8B50446F0B10AB90020F8BDBA
:10906000D1B10D468E180027B542F7D0236C15F804
:10907000012BE2540133402B2364F5D121462046D5
:10908000FFF71EFFD4E9120110F5007241F1000351
:10909000C4E912232764E7E70E20E0E72DE97848CA
:1090A0000D4616460446002800F08480002900F092
:1090B0008180026C8021372A02F1010381544FF034
:1090C00000024DD8382B46D1D4E91223206C082158
:1090D000E1FB002322FA01F1934684F83F2084F853
:1090E0003E10110C120E84F83C201A0A9C4684F89B
:1090F0003B3084F83A201A0C1B0E84F83D10C4E96A
:1091000012BC214684F8392084F838302046FFF715
:10911000D7FE691E7EB30023E26EDA4001F8012F0C
:10912000A26EDA400A71626EDA400A72226EDA408A
:109130000A73E26DDA400A74A26DDA400A75626D54
:10914000DA400A76226DDA400833202B0A77E3D121
:109150000020BDE87888E2540133B3E7E2540133DC
:109160003F2BFBD921462046FFF7AAFE38220021DB
:1091700004F08CF9A8E71823226DDA4001F8012FDA
:10918000626DDA400A71A26DDA400A72E26DDA406D
:109190000A73226EDA400A74626EDA400A75A26EB1
:1091A000DA400A76E26EDA40083B13F1080F0A77DC
:1091B000E2D1CDE70E20CCE743689B68184708B59D
:1091C000436808305A7900F06AF9002008BD2DE99B
:1091D000F0430D469BB0084699469046FFF7ECFFDA
:1091E0006E6874794C4528BF4C4607462246414676
:1091F00002A800F049F9727922990AA800F04FF903
:1092000000970AAB224602A905F1080003F084FF8B
:10921000002848F2425018BF00201BB0BDE8F08380
:1092200070470000024AD2F80034002BFBD0704790
:1092300000E001400A4908B50223C1F80435BFF334
:109240006F8FBFF34F8FC1F80805FFF7EBFF0023C7
:10925000C1F80435BFF36F8FBFF34F8F08BD00BF58
:1092600000E001400E4B10B50124C3F80445BFF3E4
:109270006F8FBFF34F8F01EB8204401AA14208D1D8
:10928000074B0022C3F80425BFF36F8FBFF34F8F46
:1092900010BD431851F8042B1A60FFF7C3FFEDE728
:1092A00000E0014028B139B10023C1E9003018467F
:1092B000704748F21050704748F21350704730B171
:1092C000036848F240508B4208BF0020704748F2C4
:1092D0001050704728B148F21150914208BF002049
:1092E000704748F21050704770B506460C461D4650
:1092F000FFF7D8FF50B9B3794AB1AB420AD1114652
:109300002046FFF75CFF08B9044B236070BD48F2AC
:109310001050FBE748F21150F8E700BF7052464D7D
:109320002DE9F0470C4607460F492046154698465A
:10933000DDE90869FFF7C3FF98B963685A794946C0
:1093400052003046FFF7C6FF58B945B1089643466C
:109350002A4621463846BDE8F047FFF738BF48F2B5
:109360001050BDE8F08700BF7052464D10B504465E
:1093700038B149B141600B68984708B9044B236084
:1093800010BD48F20150FBE748F21050F8E700BF6B
:109390006E524648F0B448B107680A4EB74209D148
:1093A00059B16AB14368F0BC5B68184748F2015094
:1093B000F0BC704748F20250FAE748F21050F7E765
:1093C0001046F5E76E524648F0B460B107680C4E9F
:1093D000B7420CD171B143681568DC68A5420CD363
:1093E0009B68F0BC184748F20150F0BC704748F247
:1093F0000250FAE748F21350F7E748F21450F4E746
:109400006E5246482DE9F041044617469846DDE97C
:109410000656FFF7ABFF60B9424639462046FFF7D4
:10942000B9FF30B9324629462046BDE8F041FFF782
:10943000CBBFBDE8F0810000F8B50A4F0A4C0B4DD8
:10944000E41B0121E40829700026A64203D102236F
:109450002B700020F8BD57F8363098470028F9D116
:109460000136F2E790D9070090D90700A85A0020EA
:1094700001390144884200D9704703780A7800F81E
:10948000012B01F80139F5E7013A02440139824222
:1094900000D2704711F8013F02F80139F7E770B5C3
:1094A00016460D46FFF7F0FF3246A9193044BDE8D5
:1094B0007040FFF7E9BF38B50D460446FFF7D8FF07
:1094C00029466019BDE83840FFF7D2BFBFF34F8F80
:1094D0000549064BCA6802F4E0621343CB60BFF350
:1094E0004F8F00BFFDE700BF00ED00E00400FA056C
:1094F0000728034607D8012000FA03F313F0A10F51
:1095000001D0FFF78DBE704708B5FFF7DFFF08B544
:10951000FFF7DCFF0022104610B54FF4805100F039
:109520004FFD024608B1FFF7D1FF0848C0F5FC2106
:1095300000F046FD0028F6D1054800F069FC04461D
:109540000028F0D100F02AFD204610BD0080070061
:10955000F19407006CDF70476DDF704772DF704772
:1095600073DF704774DF704775DF704776DF7047D1
:109570007ADF70477CDF70477DDF70477FDF7047A1
:1095800086DF70478FDF704790DF7047A8DF704736
:10959000AADF7047ADDF7047AEDF7047B0DF7047BE
:1095A000B1DF7047B5DF704762DF704766DF704735
:1095B00013DF70477FB50023CDF80A30ADF80E30C9
:1095C0000A4BADF806109B89ADF8083001238DF8E1
:1095D0000A300DF10603CDE90430054B02A91888C5
:1095E000FFF7DAFF07B05DF804FB00BF166B002041
:1095F000BE57002001460148FFF7F6B9A4D907007D
:1096000030B518228DB000210DEB020003F03EFFB3
:10961000282308931623ADF806300023CDF80E302A
:10962000CDF81230ADF816301A4B02930222062103
:1096300009251A7099701A71032159220124D970D1
:109640005A710DF10601FE2258198DF818408DF857
:109650002D40ADF80C505C709A71FFF78DFFB8B9D2
:10966000BDF806201D721119D971BDF80C301A44CD
:10967000094BADF80C2002A906AA1846FFF76EFFA9
:1096800030B91878FFF76EFF21461878FFF768FFAA
:109690000DB030BD2A6B0020BC570020F0B5038808
:1096A0001F2B8BB0044600F0C28029D8112B56D056
:1096B00006D8012B00F0CC80102B42D00BB0F0BDAF
:1096C000142B00F042811A2B34D0132BF6D1002337
:1096D000A14CADF812300223ADF8103004AA02AB51
:1096E00042F6052120880593FFF754FF08B1FFF7E4
:1096F0000EFF00231A4685212088FFF73FFF86E0F2
:10970000512B00F0AB800ED8232B00F08880502B1B
:1097100039D0212BD2D10AA9002321F8183D808805
:10972000FFF730FF73E0552B59D0562B00F08680A1
:10973000522BC3D100231A461946A088FFF730FFE9
:1097400065E0854B82881A80844A12681C460AB1FB
:109750000120904782492088FFF706FFAEE77E4B45
:109760004FF6FF721A807F4B1B685A0704D4FFF72D
:1097700047FF08B1FFF7CBFE784B1B68002B9DD04D
:10978000022098479AE7784EC288B3889A4295D1CA
:109790007648FFF704F9054600288FD0228A04F1A5
:1097A000120103F068FE1822002104A803F06EFEE7
:1097B00008238DF810306E4B06936E4B0596CDE95D
:1097C000073504A8238AADF8243001F0A5FD002850
:1097D0003FF474AF29466548FFF706F96EE7C18884
:1097E000F6291AD8CB1E9B070DD0CB1F9BB2013B8D
:1097F0005A4202F0030203F0030301F1FF3158BFA4
:109800005342C91A89B2544B1888FFF7CBFE00287F
:109810003FF454AFFFF77BFE50E7F721F3E7002258
:1098200004A98088CDE90422FFF7AEFEEFE74A4B9A
:1098300000F108011888FFF797FEE8E78379002B0D
:109840007FF43CAF444B13211888FFF78FFEDEE70F
:10985000414B00211888FFF7A9FED8E78379002B38
:109860003FF42CAF022B7FF429AF3F4900898A894E
:1098700090420E467FF422AFA27B012A7FF41EAFF6
:1098800000220120CDE904228DF81600208AADF8CF
:109890001800314D608AADF81A0004F114008DF8FB
:1098A00010300790ADF80A20ADF80830098A2888F2
:1098B00001AB02AA0393FFF76DFE2F4660B918466D
:1098C00000F056FA40B940F2FD1304A92888ADF81B
:1098D0001430FFF763FEF1E6002304A93888ADF8E1
:1098E0001430FFF75BFE014600287FF4E7AE182234
:1098F00004A803F0CBFD237D1D4A8DF81030022B08
:109900000596069218D0062B10D0012B10D11A4BB9
:109910001A881A4B1A80637DD4F816200893012BFD
:10992000099205D1164801F097FE01E0637D089386
:1099300004A801F0F1FCC1E6A27D637D43EA0223A5
:109940000D4A13800D4A1380F2E700231A46194688
:109950008088FFF715FE5AE7BE570020506B0020A5
:1099600096D607004C6B0020166B0020A4D9070088
:10997000ED990700F5950700546B0020566B002009
:1099800090D9070038B514490A6812F0010321D0B4
:10999000124B98421ED0124B18884FF6FF73984214
:1099A00013D042F004020A601321FFF7DFFD90B9E3
:1099B0000C4DC82445F001054FF47A40A847013CFE
:1099C000FAD1BDE8384002F017BC074B1878FFF712
:1099D000C9FDF6E7002038BD4C6B002090D9070088
:1099E000BE57002090D60700BC57002010B5044693
:1099F00086B01122002101A803F048FD2378082B2E
:109A00000BD1374A374913880988013B9BB2138031
:109A1000D9B1D3B9032311802370627823788DF8EC
:109A200005306021012A8DF804108DF806200ED033
:109A30000B2A52D101F0C0FA8DF80700002001F086
:109A4000B5FA042101A8FFF7B5FD06B010BD062B3D
:109A50001DD0082B01D0032B3FD1D4E90123110ADB
:109A60008DF807208DF80810110C120E8DF80A20C1
:109A70001A0A8DF80B308DF80C201A0C1B0E8DF87D
:109A800009108DF80D208DF80E300B21DAE7E16812
:109A90008DF80710D4E90123080A8DF80800080C96
:109AA000090E8DF80A10110A8DF80B208DF80C1094
:109AB000110C120E8DF80E201A0A8DF80F308DF849
:109AC00010201A0C1B0E8DF80D108DF809008DF862
:109AD00011208DF812300F21B4E70321B2E700BF47
:109AE000566B0020546B00202DE9F0434E4B95B08F
:109AF0004FF6FF7214A91A8080464FF65963012071
:109B000021F8483D42468DF80A00FFF73FFD044624
:109B1000002840F08580454B04AA03F11006154645
:109B200018685968144603C40833B3422246F7D173
:109B300008F102012846FFF737FD044600286FD1DF
:109B400001461C220DA803F0A1FC9DF83430ADF8AD
:109B5000044043F004038DF834300223ADF80C3098
:109B600098F802308DF80E304FF00109C4F3072346
:109B700069F3030369F307138DF80530E3B243EA91
:109B8000090369F342038DF80630F423CDE90A4452
:109B900001ADADF82C3003AE08F1040308AA0DA9FD
:109BA000B8F800000C94CDE90865FFF7F1FC2746F2
:109BB0000446A8BB01461C220DA803F067FC9DF8D3
:109BC0003430ADF8044043F018038DF8343098F881
:109BD00002308DF80E30C4F3072369F3030369F3F1
:109BE00007138DF80530FBB243EA090369F342031A
:109BF000DBB243F010038DF806301723CDE90A4499
:109C000008AAADF82C300DA908F10C03B8F8000033
:109C10000C94ADF80C90CDE90865FFF7B9FC04464B
:109C2000204615B0BDE8F083BE5700206CD6070073
:109C300030B5474C236813F0010587B040F08580AC
:109C4000444B18604448FEF793FE049501F0CFF9A9
:109C5000002873D14148FFF7ABFC00286ED102F019
:109C60008FFA00286AD104A802F056FB002865D1BB
:109C700004A9012002F05AFB00285FD104A802F0D9
:109C8000BFFB00285AD101F0A7FC30B1344801F0E5
:109C900097FC236843F002032360112302A88DF888
:109CA0000430FFF759FC08B1FFF731FCB4238DF8FD
:109CB0000E3037238DF80D30D1238DF80C3008236A
:109CC0008DF80B304FF0805302A81B6E8DF80A30D0
:109CD000C3F307238DF809309DF808306FF347036D
:109CE0008DF80830FFF736FC08B1FFF710FC04A828
:109CF000FFF732FC10BB9DF8113004A801338DF83A
:109D00001130FFF727FCC8B923689B0718D5144901
:109D10008869043182B201A8FFF72CFC70B91148A0
:109D2000FFF726FC50B91048FFF7DEFE30B9FFF709
:109D300067FC18B9236843F00103236007B030BD06
:109D40000A4803F0ABFB0949E4E70020F6E700BF4F
:109D50004C6B0020506B0020A4D907000080070046
:109D6000AC5A002096D60700166B00207CD6070060
:109D7000007800F00100704741DF7047014B01227D
:109D80001A707047786F0020BFF34F8F0549064B5C
:109D9000CA6802F4E0621343CB60BFF34F8F00BF89
:109DA000FDE700BF00ED00E00400FA05024B0348A8
:109DB00000221A7001F032BB786F0020899D0700E5
:109DC000C31E10B50446042B09D8DFE803F00303D3
:109DD000080F0F0009494FF4701000F039FA084BD2
:109DE0001B6853B12046BDE810401847054B064894
:109DF00000221A7001F012FBF1E710BDAD9D0700C3
:109E00007C6F0020786F0020899D0700002070473C
:109E100038B5554B554A18604FF0A0430020C3F8A1
:109E2000402701F011FB054640B900F0E9FA01288E
:109E300000F0918004D3022800F09380032038BD05
:109E40004FF08042D2F8004414F4803435D04FF4FF
:109E50008033C2F800342C46454D2B6A012B3FD08D
:109E60004FF4701400F04AFB424A20211820FEF7FC
:109E7000A7FB08B1FFF74BFB3F4B1A6802F0F80253
:109E8000B02A06D11A68D20742BF1A6802F04E0201
:109E90001A60FFF7BBFF0028D0D12046374900F0F9
:109EA000D7F9374801F042F80028C7D100F04CFB41
:109EB000FEF710FCFFF760FFF8E7D2F8203503F05B
:109EC000F803A82B0AD1D2F82035D80706D5D2F846
:109ED000203503F05603C2F82035BDE70124BBE767
:109EE00043F204031A68274B9A420AD001F0D8FBC8
:109EF0000146A4B1AA69244801F0BEFE0028AFD0F3
:109F000011E01CB995F86032012BEFD06A6B1F4845
:109F10004FF4805101F0B0FE0028A1D0E6E795F89B
:109F2000A132012BE6D14FF0A043D3F81035D9036D
:109F300096D5114B1B6813F0B10F91D101F05CFB6A
:109F400000287FF47BAF124B1870124801F066FABC
:109F500000F024F872E70E4B0F481D7001F05EFA16
:109F60006CE74FF4A0247DE77C6F00200C00030019
:109F7000B87A0020586B00201C050040AD9D0700FA
:109F8000C19D0700DBE5B151597D0020187D0020FF
:109F9000786F00207D9D0700899D070008B5074B5D
:109FA0004FF0FF32C3F88020C3F8802101F02DF874
:109FB0004FF48050BDE8084000F02EB800E100E00A
:109FC000C1F30B0330B52BBBB0F5FE2F22D8000B2D
:109FD000013900EB113101254FF08042814201D25D
:109FE000002030BD00F01F03440905FA03F3032CE1
:109FF00005D8DFE804F00206090CC2F8003601308B
:10A00000ECE7C2F80436FAE7C2F81036F7E7C2F810
:10A010001436F4E70720E4E730B50546204889B058
:10A020000022C0F5FE21FFF7CBFF01F039FB1D4BED
:10A030009969002201441046FFF7C2FFEFF3058241
:10A040000023D5E9004183F3148883F3108883F358
:10A05000118883F31388C2F308023AB984F308889D
:10A060004FF0FF339E46084709B030BD4FF0FF3533
:10A07000203CCDE90033CDE902330493CDE905510D
:10A080004FF08073202269462046079303F0F3F9CE
:10A0900084F30888AE466FF006031847E4E700BF74
:10A0A00000800700B87A002037B56FF07F42154C6A
:10A0B000057BD4F804358A4228BF0A46891A13441E
:10A0C0004A1E942A23F07F4305F5A8729BBF963B56
:10A0D00096314160416044F822300B4B4FF4F860F8
:10A0E00043F001039847094BAA00134400221A6069
:10A0F0001B680193019B4FF48033AB40C4F80433D9
:10A1000003B030BD00400240A0D6070040410240ED
:10A1100018490A7884B0002A29D14FF08043A02042
:10A12000D3F81834DB035EBF134B01221A60134AC5
:10A130000023136012680392039A114A1360126895
:10A140000292029A0F4A136012680192019A0E4A13
:10A1500082F82403102050600C4A0D48C2F80835DC
:10A160000123036002201360C2F804030B7004B0E3
:10A17000704700BF846F002008000040004102408B
:10A18000404102404441024000E100E00040024002
:10A190000840024013B5284B1A6842B127490A68A3
:10A1A00001320A6000221A601B680093009B244B56
:10A1B0001A68A2B100221A6022481B68027B019330
:10A1C000019B4FF4803393401F4AC2F80833416823
:10A1D000044601BB8168D9B9236803B198471B4B7A
:10A1E0001A6832B300221A6016481B68027F019376
:10A1F000019B4FF480339340134AC2F808334169FE
:10A20000044659B1103002B0BDE81040FFF74CBF12
:10A21000FFF74AFFE0E7FFF747FFE0E7816911B189
:10A220001030FFF741FF23691BB102B0BDE81040B9
:10A23000184702B010BD00BF04410240806F0020EB
:10A2400040410240C05700200040024044410240CB
:10A2500070B50B4B1C68227B4FF480339340094A46
:10A260000E46C2F80833054640B1FFF751FF26609D
:10A2700029462046BDE87040FFF716BF70BD00BFFD
:10A28000E05700200040024070B5074B1C680E46A6
:10A29000A0600546FFF73CFF266029462046BDE842
:10A2A0007040FFF701BF00BFE4570020014B0122BF
:10A2B0001A707047856F002070B5154DEA6A6E6A96
:10A2C000AC6CAC2A0DD16B6B1C44F61AEB6AAC2B50
:10A2D0000DD0324621460F4803F0BEF880B9002069
:10A2E00070BD002CF2D101F0F1F90446EEE73246E0
:10A2F000A4F58041074803F0AFF80028E9D1EEE764
:10A3000000F022F931462046BDE8704000F05EBE04
:10A31000B87A0020008007002DE9F74F8046894673
:10A32000A9EB0804240B02F6FF76154600F0E6F8C8
:10A33000082C28BF08242303DFF860B00193360BF4
:10A340000DB92B4626E0B4422CBFB246A2464FF0D0
:10A350000002514640462CBF2F46019F00F01EFED2
:10A360000346B8B9FA1C22F003024946404600F001
:10A3700007FE034670B9DBF83030ED1BB844B94432
:10A380001F44CBF8307001F04FF8A6EB0A060346E5
:10A390000028D5D0184603B0BDE8F08FB87A002069
:10A3A00010B501F0A3F9154A42F20403916CCC58A0
:10A3B00003F1A34303F5471303F2D7539C4218D18B
:10A3C000D2E90C32934216D018441944884204D181
:10A3D0000020BDE8104001F027B8D21A02F6FF7243
:10A3E00022F47F6222F00F02FFF796FF0028EFD0E1
:10A3F00010BD0320FCE70020FAE700BFB87A002078
:10A4000070B5264CE36AA52B36D003D8012B0BD0B0
:10A41000002030E0AA2B33D0AC2BF9D1FFF7C0FFDE
:10A4200060BBFFF749FF29E0A56C666A01F038F9C7
:10A43000226B1044A918884229D101F031F9002279
:10A440003146FEF7B3F9A36A984202BF0123C4E97B
:10A450000703A6610025124801F016F9114B1248B6
:10A4600000221A7000F0E0FF68B975B1236A012B71
:10A4700014BF0120022070BDFFF792FF0125EAE71B
:10A48000FFF71AFFE6E70320F5E70120F3E7B21A2A
:10A49000FFF742FF0028DDD1CFE700BFB87A0020E8
:10A4A000DC7A0020856F0020ADA207000A4AD2F8AE
:10A4B00000347BB109480023D2F80815D940C907F8
:10A4C00048BF03F5C07103F1010348BF42F8210002
:10A4D000072BF1D1704700BF000001403546526E96
:10A4E000FFF7E4BF044B002282B01A601B6801939F
:10A4F000019B02B0704700BF0001014038B50E4C0F
:10A500002278BAB90D4BD3F800248AB1D3F8045598
:10A51000FFF7CCFF40F61650A842B8BF28460849BE
:10A52000A0F54860FFF7B0FE064B4FF480321A608A
:10A530000123237038BD00BF866F0020000001405A
:10A54000E1A4070000E100E0034BD3F800340BB1B5
:10A55000FFF7ACBF704700BF000001400023C0E917
:10A560000232C0E900118B881A440261B1F9063049
:10A570001A4442610888003018BF0120704710B5A6
:10A58000426811880346002939D002F11001416068
:10A59000148A2CB9C2680168FFF7E0FF204610BD9D
:10A5A0009078118900F03004302C1BD1947C04F099
:10A5B0003004302C16D190881969091A19610021CC
:10A5C000907810F0300F02BF986801309860908A40
:10A5D0000844196901441961B2F9162011445961FE
:10A5E0000120DCE700F0F004202C02D15089414327
:10A5F000E6E700F0C000802808BF0421E0E7084635
:10A60000CDE770B5456804460E4663681A88B242C5
:10A6100004D19B7803F00F03082B07D12046FFF7E6
:10A62000AEFF6368AB42F0D1002070BD0120FCE7B3
:10A6300043681A44426011B101399A4201D10120A4
:10A64000704713F8010B01F8010FF6E710B58368A6
:10A6500004460BB9002010BD03680122984700286A
:10A66000F8D0A368013BA360F5E72DE9F3410F465D
:10A670000DF107018046FFF7E9FF064620B90026E5
:10A68000304602B0BDE8F0819DF80740220613D5A0
:10A6900004F07F0407250DF107014046FFF7D6FFC0
:10A6A0000028ECD09DF8072002F07F03AB401C434C
:10A6B000130605F1070501D43C60E1E7232DEAD13B
:10A6C000DDE770B54268927802F00F01082986B084
:10A6D00003461FD103691C6800260CB906B070BD83
:10A6E000236826739D68626829466846FFF736FF2F
:10A6F0006368049304F10C030593AB7803F0C00383
:10A70000802B08BF231D684608BF0493FFF7D9FFBD
:10A71000A468E2E712F0C00120D102F03000102856
:10A720000ED15A6911705A6818699378D46803F089
:10A730000F03072B09D10146204600F017F8CDE79B
:10A740009006F0D55B691980C8E71289214614B1DB
:10A7500002F091FEC2E702F099FEBFE78029BDD169
:10A760000069002192060160B8D5EBE77FB50A4683
:10A7700001466846FFF7F2FE30B16846FFF7A1FFD9
:10A780006846FFF7FCFEF7E707B05DF804FB000042
:10A7900030B5044685B01546A9B90268114B9A42F6
:10A7A00011D0102D06D82A4669462046FFF7F0FF43
:10A7B00005B030BD102269462046FFF7E9FF0028AA
:10A7C000F6D0103DEDE7A368AB4201D20020EFE7E1
:10A7D00023682A46204698470028F7D0A3685D1BC7
:10A7E000A560E5E731A60700F7B50E4601A90746C3
:10A7F0001546FFF73AFFA8B1019A0123D3184FF08D
:10A80000000404D2B17801F0C001802901D12046B2
:10A8100008E031899942FAD329463846FFF7B8FF54
:10A82000019BEC5403B0F0BD73B50E4601A905467B
:10A830001446FFF71AFFB8B1019BB3F5803F07D26A
:10A8400002229A1804D2B17801F0C001802901D106
:10A85000002009E031899142FAD321461A4621F8B5
:10A86000023B2846FFF794FF02B070BD10B5034CC1
:10A8700082600022C0E90041C26010BD31A607001D
:10A880002DE9F04F824685B00D464FF000084FF09D
:10A89000000900240DF10F015046FFF7D7FEF8B173
:10A8A0009DF80F1001F07F025FFA82FB4FF0000C61
:10A8B000CDE900BC009AA4F1200CC4F1200322FAD7
:10A8C00003F302FA0CF71F431346A34048EA0308B8
:10A8D0000B0649EA070904F1070404D4C5E9008915
:10A8E00005B0BDE8F08F462CD4D10020F8E773B551
:10A8F0000D4669461446FFF7C3FF68B12B89082B44
:10A900000CD1DDE90056C4E90056DDE90023B3426D
:10A9100006BFAA420120002002B070BD042B05D161
:10A92000DDE90001206005460026EEE7022B03D199
:10A930000098208085B2F7E7012B05D1DDE9000101
:10A94000207000F0FF05EFE70020E5E737B50D4682
:10A9500069461446FFF794FF30B12A89082ADDE9D9
:10A96000003103D1C4E9003103B030BD042A1846D8
:10A970004FEAE37108D123601A460B468B4206BFAB
:10A98000824201200020EFE7022A04D11BB223807B
:10A990001AB2D317F2E7012A03D15BB223705AB27D
:10A9A000F7E70020E0E7F7B50C46002119702170A9
:10A9B000116001A9074615461E46FFF756FE30B93D
:10A9C000BB6813B901233370002003B0F0BD0199B7
:10A9D0000029F7D0CB0801F007012B602170F4E7C4
:10A9E00013B5044605291FD8DFE801F0030F151E33
:10A9F0001E1C012201A92046FFF7CAFE18B19DF9CD
:10AA00000430002BF5DB02B010BD082200212046E7
:10AA1000FFF7BEFEF7E701A9FFF727FE0028F2D0F7
:10AA2000019AF3E70422F1E70020ECE773B50D4645
:10AA300001A90446FFF719FE064618B9002630465C
:10AA400002B070BD94E80F0085E80F0001998A42BA
:10AA5000F4D3A960A3685B1AA360F0E72DE9F04185
:10AA60005568AB7813F0C00E88B006468C46144685
:10AA700004D0BEF1400F6AD0002546E003F00F027B
:10AA80005D4903F03003102B51F822701DD006D819
:10AA9000002BF1D122692946B847054635E0202B25
:10AAA00019D0302BE8D1636929881980072A0AD187
:10AAB000636820691A89714602F0E8FC63682169BD
:10AAC000D868FFF753FE22693EE0636901221A70DD
:10AAD00022696168E0E7BCF1020FD4F8148027D145
:10AAE000042A25D804A9FFF7A1FF05460028C3D0F2
:10AAF000069B2BB16168B8F800304A899A4208D8A1
:10AB0000059B7360069B002BB6D1284608B0BDE8B4
:10AB1000F0810889226903FB002204A8B84728B104
:10AB2000B8F800300133A8F80030E1E70546E7E760
:10AB3000B8F8003021692A8903FB02126989994219
:10AB40009AD90133A8F8003061683046A4E7176944
:10AB50003B6807F1040813B9FFF742FF9DE702299C
:10AB600013D104A9FFF762FF002885D03B68616814
:10AB7000424604A89847054600283FF47DAF069B4F
:10AB8000002BF3D1059B7360BFE701292BD009D3BC
:10AB900005297FF471AF04220DEB0201FFF7F8FDE8
:10ABA000042525E0002501AB591901350B2D3FF493
:10ABB00063AF01223046FFF7EBFD00283FF45CAFA6
:10ABC00001AB2B4413F9013C002BECDB0B4B049342
:10ABD00001ABCDE90535002307933B686168424628
:10ABE00004A8984759E7082201A9FFF7D1FD0825D5
:10ABF0000028EBD140E700BFA8D6070031A6070028
:10AC00002DE9F04F91B00446002604A8CDE9026674
:10AC1000FFF7A4FCA3683BBBDDE9053404A89D78DD
:10AC2000FFF7ADFC0028F7D115F0300F03D1059BDD
:10AC30001B8803B10134002C00F0A98063090022B5
:10AC400002A9934240F09C8010AA02EB830304F017
:10AC50001F04C4F120044FF0FF3053F8383CE040AB
:10AC6000C31A584258410DE00DF1030301AA0DF13A
:10AC700002012046FFF797FE38B99DF80330002BFC
:10AC8000CAD1002011B0BDE8F08F019904A8FFF7E8
:10AC9000B8FC002850D1019BB3427FD3059D059A93
:10ACA000937803F00F03082B73D004A8FFF767FC19
:10ACB000059B9D42F3D14FF0FF36019FB7426DD304
:10ACC000089B9DF80290D4F808801D684FF0010A97
:10ACD000A368002D5FD098459CD12B68D3F800B0B5
:10ACE000BBF1000F08D04B463A4629462046D847CC
:10ACF0000028C6D0AD68EBE7D3F808B0BBF8003049
:10AD00009F42F7D16A6859460AA8FFF727FC6B688B
:10AD10000E9305F10C030F939BF8023003F0C00370
:10AD2000802B04BF2B1D0E930AAA85F80CA0494660
:10AD30002046FFF793FEDBE7059B9B7813F0300F6F
:10AD40000FD1069A3F2A0CD8510910AB03EB8101B1
:10AD500002F01F020123934051F8382C134341F8AD
:10AD6000383CE5689DF802201DB104AB01992046EE
:10AD7000A84704AA9DF802102046FFF76FFE12E0D4
:10AD800051F8225001357FF47DAF013259E701209F
:10AD900078E7168891E798457FF43CAF9DF802105C
:10ADA0002046FFF71DFE00287FF434AF69E770B539
:10ADB0000C460646154611462046FFF7D7FC2A46A4
:10ADC00021463046BDE87040FFF71ABFF0B585B0A8
:10ADD0000C46CD68694607461646FFF727FE68B160
:10ADE000E06858B1A37803F03003202B324629469F
:10ADF000684605D1FFF7DBFF019B7B6005B0F0BD26
:10AE0000FFF7FEFEF8E72DE977480E466946FFF7A3
:10AE100037FD88B1DDE90023002502F001045FEA77
:10AE2000530C4FEA320B54EA050308D06FEA0B02C9
:10AE30006FEA0C03C6E9002303B0BDE87088C6E9D9
:10AE400000BCF9E737B50D4669461446FFF7DBFF4E
:10AE500068B12B89082B0CD1DDE90001C4E90001A0
:10AE6000DDE900238B4206BF82420120002003B0AF
:10AE700030BD042B03D100982060C117F0E7022BEE
:10AE800004D1BDF90000208000B2F6E7012B04D107
:10AE90009DF90000207040B2EFE70020E7E713B50E
:10AEA00004220C460DEB0201FFF772FC08B1019B76
:10AEB000236002B010BD1146FFF7F1BF13B50822A1
:10AEC0000C466946FFF764FC18B1DDE90023C4E9CC
:10AED000002302B010BD1146FFF7F0BF10B5136894
:10AEE0001F2B144607D900220830FEF7D7F808B9FF
:10AEF0002023236010BD48F21450FBE70830FEF712
:10AF0000A9B80830FEF776B8062810B5044602D175
:10AF1000002000F0A1FB044B1B681BB12046BDE8DC
:10AF20001040184710BD00BF886F002008B5074BC0
:10AF300018600020FFF7E8FF054800F075FB20B916
:10AF40000348BDE8084000F0F1B908BD886F002053
:10AF500009AF070043690BB1C0681847704700008C
:10AF60000449054B0022904208BF19460348FDF7EB
:10AF700054BD00BF00D50700D4D4070058580020A6
:10AF800007B5009313460A4601460348FDF749FDFD
:10AF900003B05DF804FB00BF5858002013460A4672
:10AFA00001460148FDF744BD58580020014B187078
:10AFB0000B2070478C6F0020024B002218781A700B
:10AFC000704700BF8C6F002018DF704730B585B028
:10AFD000054610220C466846002102F057FAA408E4
:10AFE000684601950294FFF7EFFF05B030BD1FB52D
:10AFF000002304A8CDE901330393022340F8103D58
:10B00000FFF7E2FF05B05DF804FB4FF000534FF48B
:10B0100080521A6000207047014B06201B681847B9
:10B02000986F00200A2803D90B38C0B2FFF7BEBFC3
:10B030007047000010B5044686B00020FDF700FD03
:10B04000014630B1164A18212046FDF7DDFA06B058
:10B0500010BD1822684602F019FA04238DF800305A
:10B06000104B196D104B1B68994211D10F4B18688A
:10B0700000F04AFF8DF80100FFF7D4FFD4E9011377
:10B080008DF8010068469847094800F0CDF9DEE7E1
:10B0900001238DF801306846D4E901139847D6E7BB
:10B0A00035B00700B87A0020906F0020946F002020
:10B0B00019B00700F0B5044687B0162200210DF143
:10B0C000020002F0E3F923788DF8003001220C2B06
:10B0D0008DF8012000F214819A4012F4AD7F15D151
:10B0E000510706D4D30440F10B81864B07201B681F
:10B0F0009847D4E90113684698479DF80130012B21
:10B1000000F0F3807F4B05201B68EDE0062B7E4AA4
:10B1100001D0012B01D1216911701178012904D0CE
:10B12000022954D00023137099E0013B072BE0D88B
:10B1300001A252F823F000BF59B10700F3B0070095
:10B14000C3B1070097B10700F3B00700BDB1070016
:10B15000F3B0070071B107006A4B03201B689847E2
:10B16000606900F0D7FCFFF75DFF8DF80100C0E7D4
:10B17000A18A206900F0E6FCFFF754FF634B8DF8CD
:10B180000100DA6B1B6C0293E3680192002BB0D0D4
:10B1900020699847ADE75E495E4800F021FDFFF762
:10B1A00041FF01288DF80100A3D1002000F03CF9F7
:10B1B00000289ED00A238DF801309AE74FF40073DF
:10B1C0000393524BDA6B1B6C0192029391E7013BA4
:10B1D000072B8ED801A252F823F000BFFDB1070063
:10B1E000F3B00700BBB20700C5B20700F3B0070019
:10B1F000EFB20700F3B0070063B2070000F0C2FC33
:10B2000008B90823D7E762690AB90323D3E7C2F371
:10B210000B0333B13D4B3E495B6D096813448B42D0
:10B22000F3D1B2F5805F01D90423C4E7374B384925
:10B23000586D096815188D42E3D85A64DA6C9A641F
:10B2400018651863334B61691B6801F6FF710022B2
:10B25000090B1844FFF7A2FE00283FF44AAF05236C
:10B26000A9E700F08FFC0028CBD0284DA18AD5E9B2
:10B2700014329B1A6A6C0B449342C6D8254B2E6B32
:10B280001B68206905F148021E44FDF78FFAE36848
:10B29000A28A216907463046FFF772FE08B1E368CB
:10B2A00076E7A28A2B6B029713442B63A38A2A6D3D
:10B2B000AF6413442B6501931BE7144B9A6C029205
:10B2C0001B6DF8E7114BD3E91402596C821A8A42BC
:10B2D00097D19A6C5865002120465964DA64FFF7CB
:10B2E000A9FE084B1B680420984707B0F0BD074B28
:10B2F0009A6C1B6D01934FF4805302920393F8E60E
:10B30000022358E7986F0020E8570020B87A002001
:10B31000906F0020946F002083681BB1024A1821AF
:10B32000FDF772B907207047B5B0070038B505467C
:10B33000C0B10120FFF714FE044648B900F0D8FB65
:10B3400000F020FC30B9084B00201D60FFF72EFEF6
:10B35000204638BD0549064800F042FC0128F2D0DD
:10B360000324F5E70724F3E7986F0020906F00208F
:10B37000946F00202DE9F04115464FF460720646A7
:10B3800088461F4602F068F818B905B1A8470020A2
:10B3900006E0002201213046FFF700FE10B1032035
:10B3A000BDE8F0814FF460724146384602F063F820
:10B3B0002B464FF4607239463046FFF7E1FD002816
:10B3C000E5D0ECE770B50D4C06460022582120462A
:10B3D000FDF7ECF9002244F8040CC32104F51770C2
:10B3E000FDF7E4F9251FC4F8580232462946044BFC
:10B3F0000448BDE87040FFF7BDBF00BFBC7A002025
:10B400009C6F002000F0070002460248024B0068D3
:10B41000FFF7B0BFEC5700201C7300200149FFF775
:10B42000F3BF00BF00F0070038B505460020FFF766
:10B43000C9FF044618B903492846FFF7E5FF20462F
:10B4400038BD00BFB87A0020F8B5FFF789FD024685
:10B4500008B10320F8BD434C2368013339D058218B
:10B46000201DFDF7A3F92468211A4C424C413E4FA0
:10B470003E4E3D682B68013360D000225821281DC4
:10B48000FDF794F92B6883425CD16B68012B60D087
:10B49000002205F51870C321FDF788F9D5F85C3254
:10B4A0001A1A55425541B4B14FF460722D492F48D4
:10B4B00001F0E1FFF5B139682D485422043101F063
:10B4C000DAFF39682B484FF432725C3101F0D3FF58
:10B4D00010E00446CBE7834204D14FF46072396830
:10B4E0002248F3E74FF460720021204801F0CEFFBC
:10B4F000022373607468012C1AD11F49402201F5A0
:10B50000E47001F0B8FF1D491C2201F5E47001F060
:10B51000B2FF1B4986F8A1420023042201F28620D3
:10B5200086F8603286F8E23201F0A5FF02237360EC
:10B530000020FFF779FF00288CD08AE7002CD1D0BB
:10B540000025B1E7002CCDD04FF46072054930469C
:10B55000BCE7002CC1D04FF460720249304601F0C4
:10B560008AFFA8E700F00700EC570020B87A002017
:10B57000BC7A0020147B0020147C0020547C002026
:10B58000D47A002029DF704738B50C4D0446D5F831
:10B59000643378B101330FD1002218210430FDF754
:10B5A00005F92060214605F559700722BDE83840AD
:10B5B000FFF7E8BF0E2038BD0820FCE700F00700C9
:10B5C00008B528B11C22034901F055FF002008BD31
:10B5D0000E20FCE764F3070010B5064C002218218A
:10B5E0002046FDF7E3F854F8043C1B1A5842584132
:10B5F00010BD00BF68F3070008B50A4BD3F8242339
:10B60000013203D1D3F86433013309D04FF4FE2063
:10B61000FDF710FEC92203494FF4FE20FDF722FE7C
:10B62000002008BDB87A0020F8B5094E094CA41BCB
:10B630000746E4080025A54201D10020F8BD56F8D0
:10B640003530384698470028F8D10135F3E700BF78
:10B6500090D9070098D90700F8B5094E094CA41BEA
:10B660000746E4080025A54201D10020F8BD06EBFD
:10B67000C50338465B6898470028F7D10135F2E7E3
:10B6800090D9070098D9070008B50C22002101F0D5
:10B69000FDFE024B00221A6308BD00BFB87A0020ED
:10B6A00043F204031A68084B9A4201BF43F20803AD
:10B6B000186800F6FF7020F47F600CBF20F00F00C8
:10B6C0004FF48050704700BFDBE5B15108B5FFF77C
:10B6D000E7FF054B9B69184400F6FF7020F47F607C
:10B6E00020F00F0008BD00BFB87A00204FF4805052
:10B6F000704700002DE9F84F9846204BDFF884B0E2
:10B700001F6ADFF8849005461646002443F2040AB7
:10B71000012C14D0022C20D0FFF7D8FF6EB17A1E76
:10B7200053425341A9EB0000A84200D3D9B1C3B999
:10B73000022C1FD00134E4B2EAE73346F2E7FFF708
:10B74000AFFFB8F1000F06D1DAF80030B3EB0B030E
:10B7500018BF0123E6E72346E4E701234FF48050B6
:10B76000E0E7A84208D314B10548FFF78DFF002099
:10B77000BDE8F88FA842F7D20420F9E7B87A002094
:10B78000D07A0020DBE5B1510050070090F8552039
:10B7900012F0FB0F07D190F8643023B1836ECBB168
:10B7A0000B600120704712F0010303D090F856306F
:10B7B00003B1836D9207F2D590F85C20002AEED099
:10B7C000054A006EC2F5FC22904201D80344E6E728
:10B7D000042070470F2070470080070010B5084C08
:10B7E0004FF40072FF21204601F050FE202200217C
:10B7F000A4F1240001F04AFE002344F82C3C10BDC3
:10B80000147B002030B55B68DA680D4B9A4208D192
:10B810000C490A6812B90C4A14681CB10B4B00227F
:10B820001A7030BDD0E90134181913F9015B002DED
:10B83000A0EB0304F9DB0B601460044B0122EFE77B
:10B8400074D70700C4760020C0760020C876002098
:10B8500010B543F20403194A1C68944201462BD0E8
:10B8600042F20403C358981A434243419442184693
:10B8700021D142F20403CB58A3421CD14FF44053D0
:10B8800001F500521B781278142B81BF43F2140388
:10B890000B481B68B3FBF0F398BF0023142A89BF41
:10B8A00042F2140200208858054A88BFB0FBF2F02B
:10B8B000181A18BF012010BD0023D7E7DBE5B151EE
:10B8C00040420F002DE9FF472F49304D8A6B304C25
:10B8D000304FDFF8D490DFF8D4A06E465C313046AC
:10B8E000FEF7C4FF96E80F0085E80F0000212A4B01
:10B8F00039704FF447722046C9F80010CAF800109A
:10B90000EB6001F0C3FD224624492846FFF74FFAB9
:10B9100020B90027384604B0BDE8F0873F78002FF3
:10B92000F7D094F86C3194F800801BB3B8F1000F95
:10B93000EFD194F87231002BEBD0DAF80020D9F86F
:10B9400000103046FEF792FF96E80F0085E80F00E2
:10B950004FF4B272414604F5BA7001F097FD04F558
:10B96000BA720F492846FFF722FA0028D1D004F511
:10B97000BA7406E0B8F1000FCBD0A379002BC8D081
:10B980000834084B1C60C5E7B87A0020E87900202D
:10B99000CC760020C876002005B8070028D807001C
:10B9A00074D70700A47A0020C4760020C076002057
:10B9B00000B591B0FDF740FD684620220749FDF72C
:10B9C0006EFD6A46402306490648FDF78DFC064B8E
:10B9D00001221A7011B05DF804FB00BF2CD60700DD
:10B9E000F879002020D607009C760020F0B5A3B09F
:10B9F00006460F4615461C4678222023002104A83F
:10BA0000029301F043FD00230393194B1B780BB9FC
:10BA1000FFF7CEFF2FB336BB02AB164E0193009655
:10BA2000289B1549224604A8FDF7ECFCE8B9402DF7
:10BA30001BD1124C2A463946204601F01CFD20211C
:10BA40002046FDF738FDCDE90045029B0C49324602
:10BA500003A8FDF765FC002814BF0520012023B0D2
:10BA6000F0BD1320FBE71620F9E70A20F7E700BF37
:10BA70009C760020407A0020CCD60700607A002017
:10BA8000F8790020F0B5ABB004460E4617461D46C7
:10BA90007822202300210CA8039301F0F7FC114B1E
:10BAA0001B780BB9FFF784FF2DB12146202204A893
:10BAB000FDF7EAFC04AC03AB0B4D019300953B464C
:10BAC00032460A490CA8FDF79DFC48B920222146C0
:10BAD000284601F0C1FCB0FA80F040092BB0F0BD5F
:10BAE0000020FBE79C7600209D760020CCD6070046
:10BAF00010B5064B064C9B6B2BB1FFF7E3FE10B164
:10BB00000123237010BD0023FBE700BFB87A00209B
:10BB1000A07A002010B5044658B1B0F5007F0AD8CD
:10BB2000064B00221A70FFF759FE054B01209C635B
:10BB300010BD0320FCE70420FAE700BFA07A002034
:10BB4000B87A002070B50E4C0646E06BA36B421825
:10BB50009A420D4611D85C300A462044314601F025
:10BB60008AFCE36B04F140022B4429463046E36330
:10BB7000FCF71CFE2064012070BD0320FCE700BF21
:10BB8000B87A0020014B1878704700BFA07A0020D7
:10BB900013B5104C94F86C21B2B194F8D802B4F8F3
:10BBA000DA2204F5377104F5B8740B4B1B68009367
:10BBB0000A4B1B68FFF71AFF012809D1201D02B0AC
:10BBC000BDE8104000F0A4B9114610460434ECE77B
:10BBD00002B010BDCC760020C0760020C4760020D4
:10BBE0002DE9F0411F4BD3E90E329A4207460D462C
:10BBF00033D1DFF8788098F800604EB1FFF766FD2A
:10BC0000194B386029461868BDE8F041FFF7BEBD02
:10BC1000FFF758FE18B3FFF7BBFF01283E6004464C
:10BC20002E6017D1104B29461868FFF7AFFD012889
:10BC300004460FD10346324631462868FFF75AFDC5
:10BC400038B9FFF743FD88F8004038602046BDE86A
:10BC5000F0810424FFF7C2FDF8E70824F6E7052485
:10BC6000F4E700BFB87A0020A47A0020A07A002070
:10BC700001237230FFF706BF37B503780D46114632
:10BC8000032B03D8DFE803F022051019002003B0CE
:10BC900030BDD0F8014000222846FCF787FD8442E1
:10BCA00014BF00200120F2E70A4600232946013094
:10BCB00003B0BDE83040FFF7E5BE00912B46411CC4
:10BCC00040220020FFF792FE0128E9E70120DEE78D
:10BCD0002DE9F041A2B004460D4617460021782216
:10BCE000984604A8202303939DF8A06001F0CEFBA2
:10BCF00041220021204601F0C9FBB5F894300BB178
:10BD000095F896602670032E1ED8DFE806F009022B
:10BD1000111F002241463846FCF748FDC4F80100D7
:10BD2000424639462046FFF7A7FF22B0BDE8F08122
:10BD300003AB0193631C00933A464346074904A8AA
:10BD4000FDF760FB0028EBD00020EEE7B5F8982067
:10BD500005F19A01601C01F08EFBE1E7CCD60700EB
:10BD60002DE9F047624B1D68A4B004460F4690468B
:10BD70000A4601462846FFF77BFF002800F0B58001
:10BD800095F8556056BB4FF00109CDF800903B4641
:10BD90002246294613A8FFF79BFF38B90525B8F1BD
:10BDA000000F40F09A80FFF719FD5CE0B8F1000F3A
:10BDB00056D0412213A94F4801F05DFB4E4BC3F80A
:10BDC0002C901E626A689A60002239462046FCF771
:10BDD000EDFC494B0125C3E9097081E041220021B6
:10BDE00002A801F053FB06F001094122002113A82B
:10BDF00006F0020601F04AFBB9F1000F37D042F21B
:10BE00000403E25803F1A34303F5471303F2D753A6
:10BE10009A42C3D1D5F858A00AF5FF520AF6FF732B
:10BE2000C3F30B031F32D21A42F20803E3589342C2
:10BE3000B4D32046FFF70CFD08B1002EAED001238D
:10BE4000009322465346294602A8FFF741FF0028E7
:10BE5000A4D0AB6DE218FB1A66B9B8F1000F12D18D
:10BE6000254B01255D61284624B0BDE8F0873B469F
:10BE70002246F1E70021009113A82946FFF728FF89
:10BE80000028EAD18AE7DFF87080B9F1000F20D0EE
:10BE90002046FFF7DDFC18B108F11800FFF7F4FBAE
:10BEA000412202A9154801F0E6FA002E14BFAC2386
:10BEB000A523C8F82C30AB6DC8F83430002E83D0E1
:10BEC000412213A90E4801F0D6FA6B68C8F80C306D
:10BED0007AE7AA23C8F82C30F0E70A48FFF7D4FB2A
:10BEE000FFF77CFC044B9C64BDE7172557E700BFB8
:10BEF000A47A0020597D0020B87A0020187D002007
:10BF00009A7D0020DC7A00200122FFF729BF000083
:10BF1000F0B590F85430002B51D090F8551003290B
:10BF20004DD890F86E30032B47D1037A002B46D0C2
:10BF3000C368002B45D143F20404028A2568224CD1
:10BF4000A54229D14AB1446984B100F11405D2B2A5
:10BF500043F20C06DCB2A24201D8122014E034886D
:10BF600055F82370A74204D00133F3E769B9012AD9
:10BF7000F3D80378E3B101294068144B12D89B68C9
:10BF8000984234BF10200120F0BD11F1FF3318BFDB
:10BF90000123002BEDD1E0E712B14369002BDCD186
:10BFA0000378F6E7DB6898428CBF01201020EBE7AE
:10BFB000012914BF0F200120E6E71420E4E70F2039
:10BFC000E2E71120E0E700BFDBE5B151B87A0020DD
:10BFD00038B1054B0360054B436001230372002019
:10BFE00070470E20704700BF17C00700F1BF070061
:10BFF00069B10B78022B0CD1022804D003280CBFA6
:10C0000011200820704703230B70002070470E207A
:10C0100070470820704710B50C4681B10B78042B8F
:10C0200004D8DFE803F00E05030E0E00112010BD4A
:10C03000FFF7AAFA0028FAD102232370F7E70E20AF
:10C04000F5E70820F3E70000F8B5044680691649D3
:10C05000164A10F8025C521A0C230E46B2FBF3F299
:10C060003DB92069534300229A4205D10123236040
:10C0700013E04FF0FF30F5E7B758AF4201EB020E87
:10C0800006EB020C0ED1471C08D1DEF80850D4E9AB
:10C090000223D4E90001A8472060F8BDDCF8047051
:10C0A0008742F2D00C32DFE798D90700A4D9070005
:10C0B0001EF0040F0CBFEFF30880EFF30980FFF7C9
:10C0C000C3BF00BF10DF704711DF704713B50446D0
:10C0D00009496846FCF7DEFE019808B902B010BDB8
:10C0E000D0E900312046984718B16846FCF7DBFEDE
:10C0F000F2E71120F2E700BF9CD8070013B5044611
:10C1000007496846FCF7C6FE019B0BB902B010BD9B
:10C110002046D3E9002190476846FCF7C4FEF3E7C8
:10C12000B4D80700064B9A6822B11A6822F480023C
:10C130001A607047034B4FF48002C3F880207047A9
:10C14000AC7A002000E100E00B4991F816335A095F
:10C15000EC231341DB0706D5084B9A683AB94FF434
:10C1600080030B60704742F20200FDF7D0B91A68F5
:10C1700042F480021A60704700E100E0AC7A0020CF
:10C18000F7B5184F3C785CBB174E0125204635703B
:10C19000FFF79CFF112820D02046FFF7AFFF134B7D
:10C1A0001868019002A800F8054DFCF7C5FA10497F
:10C1B00001A8FFF787FF0446B0FA80F04009387005
:10C1C0009DF80300FCF7DCFA3CB90A4B34701C7094
:10C1D000FFF7BAFF2846FFF791FF204603B0F0BDF6
:10C1E0000824FAE7A97A0020A87A002098D8070046
:10C1F00009950700AA7A0020F7B5154F3B7813B3CD
:10C20000144E01203070FFF761FF11284FF0000538
:10C210001BD00220FFF772FF02A800F8015DFCF7B7
:10C220008BFAFFF751FF04469DF807003D70FCF7BD
:10C23000A7FA2CB93470FFF775FF0320FFF75EFFF4
:10C24000204603B0F0BD0824FAE72C46F8E700BF0B
:10C25000A97A0020A87A0020054B1B7833B1054B42
:10C260001B780BB1FFF7C8BFFFF78ABF08207047E4
:10C27000A87A0020A97A0020014B1878704700BFE7
:10C28000A97A002007B508496846FCF703FE019B20
:10C2900013B903B05DF804FBD3E90020904768466A
:10C2A000FCF701FEF3E700BFA8D80700FFF7EABFDD
:10C2B00060DF704769DF704761DF704730B5114D4F
:10C2C000ADF5017D4FF4FA740DF1020103A8ADF84C
:10C2D0000240FFF7F1FF70B9294601A8FCF7DAFD2B
:10C2E000029B002BF0D003A8D3E90021904701A8BE
:10C2F000FCF7D9FDF4E7052801D0FDF708F90DF5A5
:10C30000017D30BDC0D80700024B1B780BB1FFF791
:10C31000D5BF7047AB7A002018B1034B03600020F3
:10C3200070470E20704700BFB8570020F0B5074691
:10C3300085B00D4600295ED0304B0B600C220021E9
:10C3400001A801F0A3F8012606232A68ADF80830F9
:10C3500001A920208DF804708DF80660FFF7AAFF70
:10C360000C22002101A801F091F800242A688DF820
:10C37000056001A940208DF806408DF80740FFF7C1
:10C3800099FF0C22214601A801F080F8F7232A68C2
:10C39000ADF8063001A923208DF80470FFF78AFF5D
:10C3A0000C22214601A801F071F82A688DF804607A
:10C3B00001A93046FFF77EFF0C22214601A801F0BB
:10C3C00065F84FF4B0632A68019301A9A120FFF733
:10C3D00071FF0C22214601A801F058F89DF80430A5
:10C3E0002A68334301A9A0208DF80430FFF762FFCB
:10C3F000204605B0F0BD0E20FBE700BFB857002077
:10C4000008B5FFF755FF10B9014B01221A7008BD9E
:10C41000AB7A00204BDF70471FB50D4C01A8FFF72A
:10C42000F9FF70B9214602A8FCF734FD039B002BED
:10C43000F4D00198D3E90021904702A8FCF733FD1E
:10C44000F4E7052801D0FDF762F804B010BD00BF85
:10C45000CCD807008B1802448B4200D1704713F8E8
:10C46000010D02F8010DF7E70000000000000000D8
:10C47000C3F10803DB0070B50133002403A500BF3E
:10C480005B1920C940CAAD1920C0184720C940CA4D
:10C49000754120C020C940CA754120C020C940CA8A
:10C4A000754120C020C940CA754120C020C940CA7A
:10C4B000754120C020C940CA754120C020C940CA6A
:10C4C000754120C06441204670BD00BF00000000DF
:10C4D000C3F10803DB0070B50133002403A500BFDE
:10C4E0005B1920C940CAAD1B20C0184720C940CAEB
:10C4F000B54120C020C940CAB54120C020C940CAAA
:10C50000B54120C020C940CAB54120C020C940CA99
:10C51000B54120C020C940CAB54120C020C940CA89
:10C52000B54120C06441B4FA84F0400970BD00BF39
:10C530002DE9F04F08B4F8CA04B451F8042BA3FB5A
:10C54000028940F8048B4FF0000AE4FB629A4FF036
:10C55000000BE5FB62AB4FF0000CE6FB62BC4FF05A
:10C56000000EE7FB62CE51F8042B4FF00008E3FB0E
:10C57000628940F8048BE4FB629AE5FB62ABE6FB60
:10C5800062BCE7FB62CE51F8042B4FF00008E3FBDE
:10C59000628940F8048BE4FB629AE5FB62ABE6FB40
:10C5A00062BCE7FB62CE51F8042B4FF00008E3FBBE
:10C5B000628940F8048BE4FB629AE5FB62ABE6FB20
:10C5C00062BCE7FB62CE51F8042B4FF00008E3FB9E
:10C5D000628940F8048BE4FB629AE5FB62ABE6FB00
:10C5E00062BCE7FB62CE40F8049B40F804AB40F825
:10C5F00004BB40F804CB40F804EB0CBC052B00F066
:10C600001E810C68A0F11400A1F11401A2F1140222
:10C6100052F804EB4FF0000550F8046BE4FB6E5643
:10C6200052F804EB50F8047BE4FB6E6752F804EB1D
:10C6300050F8048BE4FB6E7852F804EB50F8049B3E
:10C64000E4FB6E8952F804EB50F804ABE4FB6E9AFD
:10C65000A0F1140052F8044B51F804EB4FF0000C19
:10C66000E4FB6EC540F804CB51F804EBE4FB6E56D6
:10C6700040F8045B51F804EBE4FB6E6740F8046B90
:10C6800051F804EBE4FB6E7840F8047B51F804EBBE
:10C69000E4FB6E8940F8048B51F804EBE4FB6E9ADE
:10C6A000A0E80006062B00F0CA800C68A0F1180074
:10C6B000A1F11801A2F1180252F804EB4FF00005A5
:10C6C00050F8046BE4FB6E5652F804EB50F8047B10
:10C6D000E4FB6E6752F804EB50F8048BE4FB6E78D1
:10C6E00052F804EB50F8049BE4FB6E8952F804EB1B
:10C6F00050F804ABE4FB6E9A52F804EB50F804BB1C
:10C70000E4FB6EABA0F1180052F8044B51F804EBB7
:10C710004FF0000CE4FB6EC540F804CB51F804EB7D
:10C72000E4FB6E5640F8045B51F804EBE4FB6E67E3
:10C7300040F8046B51F804EBE4FB6E7840F8047B9E
:10C7400051F804EBE4FB6E8940F8048B51F804EBDC
:10C75000E4FB6E9A40F8049B51F804EBE4FB6EABEB
:10C76000A0E8000C072B6AD008B40C68A0F11C00EC
:10C77000A1F11C01A2F11C0252F804EB4FF00005DC
:10C7800050F8046BE4FB6E5652F804EB50F8047B4F
:10C79000E4FB6E6752F804EB50F8048BE4FB6E7810
:10C7A00052F804EB50F8049BE4FB6E8952F804EB5A
:10C7B00050F804ABE4FB6E9A52F804EB50F804BB5B
:10C7C000E4FB6EAB52F804EB50F804CBE4FB6EBC18
:10C7D000A0F11C0052F8044B51F804EB4FF0000399
:10C7E000E4FB6E3540F8043B51F804EBE4FB6E5675
:10C7F00040F8045B51F804EBE4FB6E6740F8046B0F
:10C8000051F804EBE4FB6E7840F8047B51F804EB3C
:10C81000E4FB6E8940F8048B51F804EBE4FB6E9A5C
:10C8200040F8049B51F804EBE4FB6EAB40F804AB1A
:10C8300051F804EBE4FB6EBCA0E8001808BCBDE8AE
:10C84000F08F002310B51C465AB2914200DC10BD97
:10C8500040F823400133F7E710B500231A465CB2D5
:10C86000A14203DCB2FA82F0400910BD50F8234027
:10C8700001332243F3E74A11012350F8220001F06B
:10C880001F0103FA01F108407047013949B20A0655
:10C89000CBB205D4013900EB81025268002AF6D0F0
:10C8A00001335BB273B103F18042013A50F82220A8
:10C8B000002022B9013B00EB431318B27047520825
:10C8C0000130F6E71846704710B500235CB2A2426B
:10C8D00000DC10BD51F8234040F823400133F5E758
:10C8E00010B5013A52B2130601D5002010BD50F820
:10C8F000224051F822309C4205D802F1FF32F2D298
:10C900004FF0FF30F2E70120F0E700EB8101002358
:10C91000884200D3704751F8042D43EA52030B605C
:10C92000D307F5E770B59DF910401E46234605462E
:10C93000FFF79EFD30B9224629463046FFF7D0FF6B
:10C94000012807D02346324629462846BDE87040D4
:10C95000FFF7BEBD70BD70B59DF910401E46234661
:10C960000546FFF7B5FD38B123463246294628462D
:10C97000BDE87040FFF77CBD70BD2DE9F04FB5B04C
:10C9800004AD9DF9F8401F46814623462846FFF72F
:10C99000CFFD24AB21463846CDE90235FFF775FFC0
:10C9A000C0EB841005B26B4203F01F034FF020066A
:10C9B00095FBF6F676B205F01F0814A858BFC3F130
:10C9C00000083146FFF73DFFB8F1000F30B22DDD12
:10C9D00014AB002203EB8000C8F1200C1346A342E5
:10C9E00019D327B27B00019314AB03EB870704F143
:10C9F000FF3834AB012603EB8808002D53DA34AB43
:10CA000003EB8606224656F8C81C4846FFF75CFF33
:10CA100035B0BDE8F08F57F8236006FA08F10A43F5
:10CA200040F8232026FA0CF20133D8E714AB224653
:10CA3000394603EB8000FFF747FFD2E70FFA82FE8B
:10CA40005AF8C83C53F82EB034AB03EB820252F8CC
:10CA5000803CABEB03031B1A9B4502D034BF012083
:10CA600000205CF8C82C42F82E300131019B4AB2FC
:10CA70009A42E3DB331A5E42214614A85E41FFF777
:10CA800044FF34AB03EB8403214653F8802C58F861
:10CA9000803C384643EAC273013D48F8803C2DB2E1
:10CAA000FFF733FFA9E734AB0021C6F1010C0846BC
:10CAB00003EB860A03EB8C0CD8E730B51C4691B02B
:10CAC000054693F900306846FFF732FDD4F8AC30E4
:10CAD00069462846984711B030BD13460A46FFF70D
:10CAE000ECBF2DE9F04793F9006092B00446894607
:10CAF0001046314615469846FFF7AEFE002840F036
:10CB000091804246494602A8FFF7E7FF434602AA42
:10CB100021460AA8FFF7D1FF02A908464246FFF7BF
:10CB2000DCFF43462A4649464846FFF7C6FF08F160
:10CB30000407424629462846FFF7CFFF3B462A46D0
:10CB4000214620460096FFF7EDFE3B462A46294641
:10CB500028460096FFF7E6FE3B462A462146284631
:10CB60000096FFF7F8FE43462A4621462046FFF787
:10CB7000A4FF3B462246214628460096FFF7D2FEF8
:10CB80003B4600962A4621462046FFF7CBFE236807
:10CB9000DB074AD533463A4621462046FFF768FC74
:10CBA000314682462046FFF7B0FE06F18043013B46
:10CBB00054F8230040EACA7044F823004246214654
:10CBC0002846FFF78AFF3B460AAA294628460096D0
:10CBD000FFF7C1FE3B460AAA294628460096FFF702
:10CBE000BAFE0AA908463B462A460096FFF7B3FE5E
:10CBF00043460AAA21462046FFF75FFF02AA3B46AA
:10CC0000104621460096FFF7A6FE324629462046EA
:10CC1000FFF75AFE49462846FFF756FE02A9484646
:10CC2000FFF752FE12B0BDE8F08731462046FFF70D
:10CC30006CFEC3E72DE9F0438BB0044615468946E8
:10CC40000AAE1C22002103A800F020FC032346F8B2
:10CC5000203D95F900802A46494620462F1DFFF7C2
:10CC60003CFF3B46324621462046CDF80080FFF788
:10CC700072FE2B464A4621462046FFF71EFFCDF89E
:10CC800000803B4605F1840221462046FFF74AFE1C
:10CC90000BB0BDE8F0830000F0B5082289B00C4667
:10CCA0000646FFF711FECB6A03930B6B04934B6BA5
:10CCB00005938B6B0693CB6B0793002708236A467B
:10CCC00069466846CDE901770097FFF7D1FB082355
:10CCD00005466A4631463046FFF7CAFB236B03938D
:10CCE000636B0493A36B0593E36B0544CDE90637AF
:10CCF0006A46082369466846FFF7BAFB08230544DD
:10CD00006A4631463046FFF7B3FB236A0093636AF5
:10CD10000193A36A0293A36B0693E36B0793054405
:10CD200008236A4631463046CDE904770397FFF77A
:10CD30009FFB636A0093A36AA26B0193E36A029369
:10CD40000492636BE26B0393CDE90523236A079397
:10CD5000054408236A4631463046FFF789FBE36AFB
:10CD60000093236B0193636B0293236A0693A36A78
:10CD70000793054408236A4631463046CDE90477D7
:10CD80000397FFF7A5FB236B0093636B0193A36BE2
:10CD90000293E36B0393636A0693E36A07932D1A86
:10CDA00008236A4631463046CDE90477FFF790FB09
:10CDB000636B0093A36B0193E36B0293236A03936A
:10CDC000636A0493A36ACDE90537236B07932D1A91
:10CDD00008236A4631463046FFF77AFBA36B00937F
:10CDE000E36BCDE90137636A0393A36A0493E36AB3
:10CDF000CDE90537636B07932D1A08236A46314640
:10CE00003046FFF765FB2D1A0D4C0FD435B90822BB
:10CE100031462046FFF764FD01280FD00823224643
:10CE200031463046FFF754FB2D1AEFE70823224620
:10CE300031463046FFF71CFB2D18F7D409B0F0BD82
:10CE4000DCD80700F0B5154689B01C4607460E46EB
:10CE50001A4629466846FFF740FE23466A46394689
:10CE60003846FFF72AFE23462A4669466846FFF7FA
:10CE700024FE23466A4631463046FFF71EFE09B0BF
:10CE8000F0BD2DE9F0438BB01446129D15F9046BEB
:10CE900000961F46804689462B460246214602A838
:10CEA000FFF759FD02A9129A0846FFF716FE129BDA
:10CEB00002AA41464046FFF700FE129B02AA214605
:10CEC0002046FFF7FAFD2B464A463946384600967B
:10CED000FFF741FD129A394602A8FFF7FEFD02A9AD
:10CEE0002B46424608460096FFF735FD02A92B4621
:10CEF000224608460096FFF72EFD2B464246214665
:10CF000020460096FFF727FD129B224649464846D9
:10CF1000FFF7D3FD2B4602AA414620460096FFF7B5
:10CF20001AFD129B224639463846FFF7C6FD2B46AE
:10CF30004A46394638460096FFF70DFD324602A9AB
:10CF40002046FFF7C1FC0BB0BDE8F0832DE9F047A8
:10CF5000B3F9024088461E4604F11F01202307341E
:10CF600091FBF3F708234FFA87F994FBF3F494420B
:10CF700028BF144649460546FFF763FC2246414652
:10CF8000FFF768FAB6F90230E4009C421FD9E41AB0
:10CF900005EB87010022C4F120078D420ED3243611
:10CFA0004A4629463046FFF79BFC01280FD04B46E6
:10CFB00032462846BDE8F047FFF78ABA51F8040D1B
:10CFC00020FA04F313430B6000FA07F2E5E7BDE82B
:10CFD000F08770B5036813F001050646144605D0C6
:10CFE00013460A460146FFF743FA054621463046F6
:10CFF000FFF78BFC45B104F18042013A56F822302C
:10D0000043F0004346F8223070BDF0B50F46A1B0A2
:10D0100006461946384615461C46FFF71DFC20B14A
:10D020003046FFF70EFC21B0F0BD22463946684677
:10D03000FFF74AFC294608A8FFF746FC10A821463E
:10D04000FFF7FFFB012318A81093FFF7FAFB224616
:10D0500008A96846FFF744FC28B9224610A93046C3
:10D06000FFF732FCDFE7009BDA0709D42146684668
:10D07000FFF74BFC2246294610A8FFF7AAFFE6E778
:10D08000089BDB0707D4214608A8FFF73EFC224691
:10D09000294618A8F1E7002823461CDD08AA69469E
:10D0A0006846FFF715FA21466846FFF72EFC224630
:10D0B00018A910A8FFF714FC002805DA10A92346C8
:10D0C0002A460846FFF7D4F910A9234618AA0846AD
:10D0D000FFF7FEF9CEE708A96A460846FFF7F8F918
:10D0E000214608A8FFF711FC224610A918A8FFF74F
:10D0F000F7FB002805DA18A923462A460846FFF759
:10D10000B7F918A9234610AA0846FFF7E1F9BEE7C8
:10D1100000487047D8D807002DE9F04FEDB01F4602
:10D12000DDF8D8810590B8F9026098F90040202315
:10D130001F3696FBF3F676B206F1FF3924AB0025D5
:10D1400043F829506CAB03EB89034CA88A469346FD
:10D15000394698F9012043F8805C43F8605CFFF79A
:10D1600079F998F9012054A8B918FFF773F9214605
:10D170004CA8FFF771FB0746002840F02E8154A809
:10D18000FFF76AFB0290002840F0298108F1240390
:10D1900032464CA918460393FFF7A2FB012840F042
:10D1A0002081324654A90398FFF79AFB0128069084
:10D1B00040F017811CAD0CAF3346039A54A92846A2
:10D1C000FFF723FF029B47F829305A46514638465D
:10D1D0004346FFF7BBFE39463846039B00962A4676
:10D1E000FFF7CBFB0DF5B879039B00962A464CA9B7
:10D1F00014A8FFF7C2FB224648460599FFF764FBD7
:10D20000A30009EB030A0793059BA100591808F135
:10D21000440B5046FFF758FB594634A8FFF754FB20
:10D22000A3000BEB03013CA8FFF74EFB08F104033E
:10D23000494634AA284600940493FFF78CFB5346D2
:10D240004A463CA934A8CDF80080FFF71AFE2346D1
:10D25000049A29462846FFF7D8FE2A4651464846F2
:10D260004346FFF7EFFD029BCDE9083B059B3146A6
:10D270003846CDE90A39FFF708FB3146814614A844
:10D28000FFF703FB8145B8BF81461FFA89F909F111
:10D29000FF3B0FFA8BFB59463846FFF7ECFA59462D
:10D2A000071C14A818BF0127FFF7E5FA002814BFD0
:10D2B000022300231F430DF1200A22465AF827704B
:10D2C00024A83946FFF700FB0DF1B00BA300F918B5
:10D2D0005846FFF7F9FA21462846FFF7B2FAA9F1B6
:10D2E0000209069B2B600FFA89F90DF1900AB9F13A
:10D2F000000F23DA2346049A29462846FFF785FEC5
:10D3000043462A4659465046FFF79CFD3246514651
:10D310000398FFF7E5FA012804D03346039A5046F4
:10D32000FFF7D6F8013C64B24CAA23064BD5029B0A
:10D33000B3FA83F040096DB0BDE8F08F43462A464A
:10D34000D8F8A47059465046B84749460CA8FFF78C
:10D3500092FA4946071C14A818BF0127FFF78BFA59
:10D36000002814BF022300231F4308AB53F8277083
:10D3700027B32246394634A8FFF7A6FA079B3CA8F4
:10D38000F918FFF7A1FA43462A463CA934A8FFF74B
:10D3900059FD049B009434AA514644A8FFF7DBFAD8
:10D3A0005B4652463CA934A8CDF80080FFF769FDE2
:10D3B000434644AA29462846FFF77FFB09F1FF3977
:10D3C0000FFA89F993E752F824105AF824304B40A9
:10D3D000029919430291013CA7E72846ABE738467A
:10D3E000A9E70298A7E7000008B5074B044613B168
:10D3F0000021AFF30080054B1868836A03B198479A
:10D40000204600F053F800BF0000000088D9070054
:10D4100070B50D4E0D4CA41BA4100025A54209D1DA
:10D420000B4E0C4C00F044F8A41BA4100025A542A0
:10D4300005D170BD56F8253098470135EEE756F80E
:10D44000253098470135F2E7505800205058002009
:10D45000505800205458002030B50024A24201D179
:10D46000002007E0035D01340D1915F8015CAB42A3
:10D47000F4D0581B30BD10B5431E0A44914200D170
:10D4800010BD11F8014B03F8014FF7E702440346C2
:10D49000934200D1704703F8011BF9E7034613F8E4
:10D4A000012B002AFBD1181A01387047FEE700BF94
:10D4B000F8B500BFF8BC08BC9E467047F8B500BF81
:10D4C000F8BC08BC9E467047001000000400000035
:10D4D000010000008D8A0700B18A0700C18A070099
:10D4E0002D8B0700D18A0700998A07009D8A0700C3
:10D4F000A18A0700001000000400000001000000E5
:10D500003D8C07001D8C07000D8C0700458E070021
:10D51000F98D0700DF8B0700E38B0700E98B07001D
:10D52000982F8A4291443771CFFBC0B5A5DBB5E98E
:10D530005BC25639F111F159A4823F92D55E1CAB02
:10D5400098AA07D8015B8312BE853124C37D0C5590
:10D55000745DBE72FEB1DE80A706DC9B74F19BC1D8
:10D56000C1699BE48647BEEFC69DC10FCCA10C24C8
:10D570006F2CE92DAA84744ADCA9B05CDA88F976AC
:10D5800052513E986DC631A8C82703B0C77F59BF16
:10D59000F30BE0C64791A7D55163CA066729291442
:10D5A000850AB72738211B2EFC6D2C4D130D3853DF
:10D5B00054730A65BB0A6A762EC9C281852C7292A1
:10D5C000A1E8BFA24B661AA8708B4BC2A3516CC7CF
:10D5D00019E892D1240699D685350EF470A06A1008
:10D5E00016C1A419086C371E4C774827B5BCB03457
:10D5F000B30C1C394AAAD84E4FCA9C5BF36F2E68F5
:10D60000EE828F746F63A5781478C8840802C78C83
:10D61000FAFFBE90EB6C50A4F7A3F9BEF27871C686
:10D62000480028000020400011D107007A33E5A00F
:10D63000C9763C514573D05AE29534286AADE8D298
:10D6400018CF97F5BCDF1759F75A26A336FBF622F9
:10D65000D3ACB8711E480E200344164EE0385F88E4
:10D6600024DE693F2E94D1F5B40FF6A850EADA30E3
:10D670008883B89F604F15F30000C98E44667554C7
:10D680006172670000000000000000000000000060
:10D690000338FDD870470C000C0000005802000051
:10D6A0000338FDD8704700004DA90700EFA8070018
:10D6B00045AE0700B7AE0700D7AE070029A80700A0
:10D6C000E9A70700CDAD07000000000003AF070089
:10D6D000FDAE0700DDAE070020000000780000006E
:10D6E0000000000001000100000000000100000037
:10D6F00000000000020005000100000042000000E0
:10D700000000000000000000000000000000000019
:10D7100000000000010011000100FFFF01000000F7
:10D7200000000000020017000200FEFF640100007C
:10D7300074D7070000000000000000000000000097
:10D7400000000000010001000000000001000000D6
:10D75000000000000200050001000000220000009F
:10D7600000000000000000000000000000000000B9
:10D7700000000000010011000400FCFF0400000094
:10D7800000000000020011000400FCFF0400000083
:10D7900000000000030021000400FCFF0400100052
:10D7A00000000000040011000100FFFF0100000064
:10D7B00000000000050011000200FEFF0400000050
:10D7C00000000000060011000400FCFF040000003F
:10D7D00000000000070011000400FCFF040000002E
:10D7E00000000000080017000200FEFF24000000F7
:10D7F00044D70700090010000100FFFF01000000EE
:10D8000024D807000A0027000200FEFF440003009E
:10D81000E4D6070000000000000000000000000047
:10D820000000000000000000010017000400FCFFE1
:10D830006801000014D70700020017000400FCFF75
:10D84000AC01000058D807000000000000000000F4
:10D8500000000000000000000100070000000000C0
:10D860006801000014D7070002000100000000005A
:10D87000010000000000000003000500010000009E
:10D880004200000000000000000000000000000056
:10D89000000000000000000001000007C0D90700E0
:10D8A000C8D9070008000000D0D90700E0D9070058
:10D8B00008000000C8D90700D0D907000800000000
:10D8C000B8D90700C0D9070008000000E0D9070058
:10D8D000E8D907000800000008200001FFFFFFFF53
:10D8E000FFFFFFFFFFFFFFFF000000000000000040
:10D8F0000000000001000000FFFFFFFF512563FC56
:10D90000C2CAB9F3849E17A7ADFAE6BCFFFFFFFFBA
:10D91000FFFFFFFF00000000FFFFFFFF96C298D847
:10D920004539A1F4A033EB2D817D0377F240A46348
:10D93000E5E6BCF847422CE1F2D1176BF551BF3751
:10D940006840B6CBCE5E316B5733CE2B169E0F7C24
:10D950004AEBE78E9B7F1AFEE242E34F4B60D227F1
:10D960003E3CCE3BF6B053CCB0061D65BC869876E7
:10D9700055BDEBB3E7933AAAD835C65AE3CA0700B8
:10D9800035CC070099CC0700F057002000000000BC
:08D99000319C07008599070096
:0CD998000000000003000000D1BF0700E9
:10D9A400C85A0020046B0020156B0020D05A0020B8
:04D9B400F40000007B
:08D9B8009D960700000000002D
:08D9C000F98B070000000000D4
:08D9C800B98D0700000000000A
:10D9D00009C307000000000019C407000000000090
:08D9E000158D07000000000096
:08D9E80058A8FF7F01000000B8
:10D9F0000090D003FF00FFFF0000000000000000C7
:10DA00000000000000000000000000000000000016
:10DA10000000000001000000C0570020D057002087
:10DA20000100000000E0070000000000000000000E
:10DA300000000000000000000000000000000000E6
:10DA400000000000000000000000000000000000D6
:10DA500000000000000000000000000000000000C6
:10DA600000000000000000000000000000000000B6
:10DA700000000000000000000000000000000000A6
:10DA8000000000000000000025820700018207005E
:10DA9000000000000000000055AF0700001000006B
:04DAA000000008007A
:04000003700082B552
:00000001FF
