:020000022000DC
:1060000000000120B5620200DD620200DF620200D2
:10601000E1620200E3620200E562020000000000AB
:10602000000000000000000000000000E762020025
:10603000E962020000000000EB620200ED62020073
:106040005D900200EF62020039990200EF620200E7
:10605000EF620200EF620200F1930200EF620200C1
:10606000EF620200EF620200EF620200EF620200E4
:10607000EF620200EF620200EF620200EF620200D4
:10608000EF62020061720200EF620200EF62020042
:1060900001730200EF620200E9CF0200EF6202002A
:1060A000EF620200EF620200EF620200EF620200A4
:1060B000EF620200EF62020000000000000000003A
:1060C000EF620200EF620200EF620200EF62020084
:1060D000EF620200EF620200EF62020000000000C7
:1060E00000000000000000000000000000000000B0
:1060F00000000000000000000000000000000000A0
:10610000000000000000000000000000000000008F
:10611000000000000000000000000000000000007F
:10612000000000000000000000000000000000006F
:10613000000000000000000000000000000000005F
:10614000000000000000000000000000000000004F
:10615000000000000000000000000000000000003F
:10616000000000000000000000000000000000002F
:10617000000000000000000000000000000000001F
:10618000000000000000000000000000000000000F
:1061900000000000000000000000000000000000FF
:1061A00000000000000000000000000000000000EF
:1061B00000000000000000000000000000000000DF
:1061C00000000000000000000000000000000000CF
:1061D00000000000000000000000000000000000BF
:1061E00000000000000000000000000000000000AF
:1061F000000000000000000000000000000000009F
:1062000010B5054C237833B9044B13B10448AFF3F0
:1062100000800123237010BDC02C0020000000006E
:106220001CF4020008B5034B1BB103490348AFF34C
:10623000008008BD00000000C42C00201CF40200F7
:10624000154B002B08BF134B9D46A3F5803A002148
:106250008B460F461348144A121A07F0CAF80F4B20
:10626000002B00D098470E4B002B00D09847002001
:10627000002104000D000D48002802D00C48AFF3A7
:10628000008007F067F82000290004F029FF07F0DC
:106290004DF800BF000008000000012000000000D1
:1062A00000000000C02C0020A43E002000000000E0
:1062B000000000000649074A074B9B1A03DD043B18
:1062C000C858D050FBDC02F00BFBFFF7B9FF000011
:1062D0001CF50200982A0020C02C0020FEE7FEE7F3
:1062E000FEE7FEE7FEE7FEE7FEE7FEE7FEE7FEE786
:1062F000704700BF00B583B0044B0093044A4023AD
:1063000000F036F803B05DF804FB00BF156302002F
:10631000E02C002002B32DE9F843114B114E8846C2
:10632000144643F0010903270025224608EB050126
:10633000002004F0E7FF03461D444FF47A40E41ABE
:1063400023B9337833B1C847013F06D001233370F6
:10635000002CEAD1BDE8F88370473770BDE8F883B8
:1063600020E60200DC2C0020704700BF05F07EB85C
:10637000F0B595B0002415460F4608461E4602F0BB
:106380006FF9384623460895082205A91A9D0996F3
:106390000D950A948DF82C400C9402F0BBF99DF8F1
:1063A00014308DF81140DDE9061003F00302012AD4
:1063B000CDE9020127D0022A04D0384602F054F970
:1063C00015B0F0BDBDF81650C3F3C2038DF8103000
:1063D000AD090826082D2C4628BF0824334622463E
:1063E0000EA9384602F096F92D1B214608AB02AAE9
:1063F0000EA8264400F0ACFC002DEBD1384602F08C
:1064000033F915B0F0BDBDF81460059DC6F38316D1
:10641000C3F3C204B2000EA9384608238DF8104019
:10642000C5F3952502F076F908AB324628460EA949
:10643000009302AB00F0E6FB384602F015F915B008
:10644000F0BD00BF08B5FFF791FF0421034800F03D
:106450008FFB034B01225A7108BD00BF04F50200F7
:10646000982A0020F0B5324C85B004F5836001F025
:1064700009FC04F2144001F005FCD4E9013703EAF9
:106480000702D01C04EB800114F8200010F0040077
:1064900044D003F1020C0E7806F00306012E654687
:1064A00035D0022E02F1030621D004EB860100282C
:1064B000F1D104EB82020133D26801923B4004EB3C
:1064C000830302F00302012ADE6829D0022A23D1C5
:1064D000BDF806309B090333360C05EB93051548D0
:1064E00001F0DCFB00B16560304605B0F0BD4B88C3
:1064F0000CEB931307EA0302D11C03F1020C14F80E
:106500002100654604EB810100F00400CFE70B8811
:10651000C3F383136344EDE70026E0E79D1CC8E75F
:10652000BDF80430C3F38313360C1D44D7E700BF16
:10653000F02D0020043200200B4B0C4810B5002237
:10654000FF21C3F818249960C3E90022C3F814247A
:1065500083F8202402F040F8044610B9044802F001
:106560004DF9204610BD00BFF02D002088F4020038
:1065700044E6020021B9124B03EBC00000687047EB
:10658000104A0F49521AD20815D030B40E4D2B883C
:10659000834212D0002303E035F82340844205D023
:1065A00001339A42F8D1002030BC704701EBC300A0
:1065B000006830BC7047104670470846F8E700BFD7
:1065C0009CF4020004F50200BC2C0020094B0139A8
:1065D00003EBC00003290BD8DFE801F00208060432
:1065E0000220704740797047007970470420704757
:1065F000002070479CF402002DE9F04383B002AB09
:10660000002203F8012DDFF8DC9007461846884683
:10661000D9F8084001F0A0FAD9E90132D9F80060B0
:10662000134401339B1B012B58D809F21C4501214F
:10663000284601F00FFBFFF715FF0146284601F041
:1066400009FBD9E90132D9F80010134401335B1A70
:10665000012BECD90A400332052302319DF80700D3
:1066600049F82230C9F8001001F09CFA00211C48BA
:1066700001F0CEFA80F31000731C234009EB830372
:1066800000043440033440EA1740D86019F824303D
:1066900067F3C50309F8243039F824306FF3891300
:1066A00029F8243059F8242068F39F221346012149
:1066B00061F301036FF3820349F8242009F82430C1
:1066C00099F820341BB906E000F00EF818B1D9E9AA
:1066D00000329A42F8D103B0BDE8F0833146B9E701
:1066E0000C320020F02D00202DE9F047934C0023C0
:1066F00084B0C4F81834BFF34F8FD4E9015605EACB
:106700000602D31C04EB830114F82330580719D573
:1067100027680B7803F00303012B43D0022B03D12E
:106720004B88023505EB931506EA0502D4F81804E8
:10673000D31C04EB830128B9AF4239D914F82330B4
:106740005B07E6D404EB82026B1CD26801923340F3
:1067500004EB830302F00302DB680293022A05F1D3
:10676000020700F08D80012A26D0D4F810543DB1E4
:106770002B6828469B689847EB681D68002DF7D169
:106780006F48704B7049C01AC008000440F0020006
:10679000FFF732FFD4E90030C01A18BF012004B05F
:1067A000BDE8F0870B880235C3F383131D44BBE7B4
:1067B000676004B0BDE8F087BDF804206348C2F309
:1067C0008313062B28BF062363F389120233990033
:1067D000ADF8042001F002FF80460028C5D001F08A
:1067E0003FFF0023082201A9404601F05FFFBDF8EA
:1067F000043013F4707F00F09F806FF0010AAAEB61
:10680000050A082506EA070103312B46042204EB9A
:106810008101404601F04AFFBDF8043007F101094B
:106820000AEB0902C3F3831393424F4605F10405B3
:10683000E8D8D4F81834002B68D1D4F8105465B1D6
:10684000EB685A7928464146002A5BD02B681B68C2
:106850009847EB681D68002DF2D1404601F004FF17
:1068600004A8002300F80D3D01F076F9D4F818349F
:106870000BB9C4F804909DF8030001F093F989E77F
:10688000BDF8063031484FEA93194D46502D28BFC8
:10689000502565F38F1305F10801ADF8063001F0BE
:1068A0009DFE804600283FF460AF26EA070A0AF101
:1068B000010A01F0D5FE4FEA8A0A0023082201A945
:1068C000404601F0F3FE55452BD9EBB2BAF1000F6B
:1068D00020D006EA0701A3EB0A03033104EB810190
:1068E000DDB252460823404601F0E0FE2A460AF196
:1068F00008031749404601F0D9FE09F1030907EBE7
:10690000990996E71D68002D9AD1A6E7404601F047
:10691000ABFE3FE72A4608230D49404601F0C6FE7C
:10692000EBE706EA0701033104EB81012A4608235D
:10693000404601F0BBFEE0E7B9467AE7F02D0020C3
:10694000C4F402009CF4020050E6020088F4020045
:10695000FC2D00202DE9F04782B002AB002403F8A3
:10696000014DDFF8ECA00746184691468846DAF854
:10697000084001F0F1F8DAE90132DAF80060134476
:1069800001339B1B022B5ED80AF21C4501212846CD
:1069900001F060F9FFF766FD0146284601F05AF95B
:1069A000DAE90132DAF80010134401335B1A022BE2
:1069B000ECD90A400332033145239DF807004AF819
:1069C0002230CAF8001001F0EDF8B31C23400AEBA6
:1069D000830300211D48C3F80C9001F019F980F3DE
:1069E0001000731C23400AEB83030004344003347B
:1069F00040EA1740D8601AF8243067F3C5030AF854
:106A000024303AF82430012161F389132AF8243024
:106A10005AF8242068F39F22134661F301036FF3B1
:106A200082034AF824200AF824309AF820341BB94B
:106A300006E0FFF759FE18B1DAE900329A42F8D1C0
:106A400002B0BDE8F0873146B3E700BF0C3200204A
:106A5000F02D00202DE9F04F83B002AD002405F8A1
:106A6000014D3B4C8046284693469A468946A56888
:106A700001F072F8D4E90132276813440133DB1BBB
:106A8000032B63D804F21C460121304601F0E2F8E2
:106A9000FFF7E8FC0146304601F0DCF8D4E90132AA
:106AA0002168134401335B1A032BEDD90A400332EA
:106AB000852344F8223004319DF80700216001F05D
:106AC00071F8BA1CFB1C2A402B4004EB820204EB39
:106AD000830300211F48C2F80CB0C3F80CA001F0DA
:106AE00097F880F310007B1C2B4004EB8303000419
:106AF0003D40033540EA1840D86014F8253068F36B
:106B0000C50304F8253034F82530022262F38913D6
:106B100024F8253054F8252069F39F2213460121DB
:106B200061F301036FF3820344F8252004F8253054
:106B300094F820341BB906E0FFF7D6FD18B1D4E96C
:106B400000329A42F8D103B0BDE8F08F3946ADE784
:106B5000F02D00200C320020044BD3E900239A4290
:106B600001D0FFF7C1BD0020704700BFF02D00200D
:106B700030B4184DD5F8104400215CB1E3681A799F
:106B80008A4204D116E0DB681A798A4212D01B6867
:106B9000002BF8D1C3681971D5F8103493B1DA68B5
:106BA000C36812681A60D5F81034DB68186030BC0E
:106BB0000846704701310A29DFD14FF0FF310846FE
:106BC00030BC7047C5F81004C2681360084630BC7A
:106BD000704700BFF02D002038B5094BD3F81044A2
:106BE000012583F820544CB1E3685D712368204689
:106BF0005B689847E3681C68002CF5D138BD00BF7E
:106C0000F02D00202DE9F04784B01D460C9C002398
:106C100094F80C802373EB8881460E461746002BB0
:106C200040D1297A05290ED06B7AA88873BB404BD6
:106C300053F821A00021FFF79DFC524603463D4931
:106C4000204601F0A3F8062F09D8DFE807F0046A10
:106C50004249525D33004946204601F097F82B7AAD
:106C6000052B05D06B7A5BB93349204601F08EF8CD
:106C7000204601F07FF884F80C8004B0BDE8F0876E
:106C80002E4A2F49204601F081F8EDE7FFF79EFCE0
:106C90002C4B2B4953F82020204601F077F8297A15
:106CA000A888C4E7254A00922749284A204601F0CF
:106CB0006DF8B6E7D6E90410D6E900230390D6E9CB
:106CC00002070291CDE900074946204601F05EF82F
:106CD000C5E74946D6E90023204601F057F8BEE74C
:106CE000B168D6E9002320460091494601F04EF8EC
:106CF000B5E7D6E90201D6E90023019100904946A3
:106D0000204601F043F8AAE7D6E90371B068D6E956
:106D100000230291CDE900074946204601F036F8EC
:106D20009DE732684946204601F030F897E700BFFA
:106D3000DCE60200CCE60200D8E60200C0E6020073
:106D4000C8E6020068E60200A8E60200A0E602002B
:106D5000082900D970472DE9F04F1D4690460023C1
:106D60002A7B2B7385B0B8F80630039207460E468F
:106D7000002B7BD198F80810052911D098F809301C
:106D8000B8F80400002B63D13C4B53F8214000219C
:106D9000FFF7F0FB224603463949284600F0F6FF8C
:106DA000DFF8FCB0DFF8FC90002405E03A5D013428
:106DB00000F0ECFF082C09D0A64249462846F5D839
:106DC0005946013400F0E2FF082CF5D12D49DFF8D7
:106DD000D8B0DFF8D890284600F0D8FF00240CE0A7
:106DE00017F804A0BAF17E0F23D92E22494628466F
:106DF000013400F0CBFF082C08D0A642F0D8594649
:106E00002846013400F0C2FF082CF6D198F808306B
:106E1000052B02D098F80930A3B91B49284600F089
:106E2000B5FF284600F0A6FF039B2B7305B0BDE815
:106E3000F08F06F0B3FA50445246437813F0970FA0
:106E4000D3D0D3E7114A1249284600F09FFFE4E768
:106E5000FFF7BCFB0F4B0E4953F82020284600F0EB
:106E600095FF98F80810B8F804008DE7074A0092DB
:106E700009490A4A284600F089FF7BE7DCE6020060
:106E8000CCE6020098E60200D8E60200C0E6020066
:106E9000C8E6020068E60200A8E60200A0E60200DA
:106EA00094E602008CE60200D4E602009CE60200B2
:106EB000434B1978002900F081802DE9F04F002420
:106EC00087B001258E4603E00134E4B2744560D2F8
:106ED0003C4B27B21E6816F837C0ACF1200205FA09
:106EE00002F9394ACCF12003D2E9000125FA03F373
:106EF00049EA030905FA0CF800EA080201EA090365
:106F0000134306EBC70BDFD021EA09032E4920EA21
:106F100008026046C1E9002302F060FA16F837C0A3
:106F2000ACF1200205FA02F201920199CCF12003A2
:106F3000C6B225FA03F3ACF12002194306FA02F3B4
:106F40000393224B0191D3E90023CDE9042305FAF1
:106F50000CF30093CCF12001039B26FA01F10B43C3
:106F6000039306FA0CF30293DDE90467DDE90023DD
:106F700016401F4032463B46DDE90267BB4208BF70
:106F8000B24209D00E4B013493F800E0E4B27445EC
:106F90009ED307B0BDE8F08F9BF80110DBF80430FA
:106FA000A1F10101B1FA81F14909091AB1FA81F19E
:106FB0004909002BE6D060469847E3E7704700BFD9
:106FC000AC320020E8320020E0320020D83200202D
:106FD0002DE9F84F0646244800F018FCD8B9234F95
:106FE0000123A6F1200103FA01FBC6F12002D7E933
:106FF000000123FA02F24BEA020B03FA06FA00EA56
:107000000A0201EA0B03134307D020EA0A0421EA2B
:107010000B05C7E90045BDE8F88F304602F0DEF900
:10702000134ED6E90089C8B148EA0A0349EA0B04BD
:107030009846A146D7E900234BEA03050D4B0A48C1
:1070400019684AEA02044B464246C6E90023C7E9EA
:1070500000450022BDE8F84F00F082BB28EA0A088C
:1070600029EA0B09E6E700BFB4320020E032002035
:10707000D8320020B0320020042A36D92DE9F04160
:1070800082B00E460546144602F05EF8002836D05F
:107090001D491E4A1E4B0D601E481F491C6016707C
:1070A00000230022741EC0E90023C1E90023E4B2DA
:1070B000EEB105EBC404194F083D4FF0000803265C
:1070C00001E0AC4213D0A37820788DF806803A46D0
:1070D00001A98DF804608DF8053002F03FF8083CF6
:1070E0000028EED002B0BDE8F081072070470C4ABE
:1070F0000C48002100F022FB02B0BDE8F08101F055
:10710000DFFF0028C4D0EDE7E8320020AC320020D9
:10711000B0320020D8320020E0320020D16F0200CF
:10712000B16E020048E7020070B5084D2B785BB1E4
:10713000074E00243368012113F8340002F0ECF804
:107140002B780134A342F5D8002070BDAC3200206A
:10715000E832002000B585B000230390194601AA4B
:1071600044F20100CDE9013300F004F805B05DF808
:1071700004FB00BF10B572B6FFF72EFDFFF7ECFC65
:107180000028FBD1104B114C1149E41AE4082404E7
:1071900044F00100FFF730FA0E4B1B68DB0700D507
:1071A00000BE44F002000C49FFF726FABFF34F8FF0
:1071B0000A490B4BCA6802F4E0621343CB60BFF389
:1071C0004F8F00BFFDE700BF9CF40200C4F4020033
:1071D0004CE70200F0ED00E058E7020000ED00E0AF
:1071E0000400FA0559B142B1531E1A4005D182601C
:1071F00001608380C26010467047092070470E20EE
:10720000704700BF10B403468468C0689A88001BAA
:1072100082420AD3D8681C6802400020A154DA6870
:107220000132DA605DF8044B704704205DF8044BCE
:10723000704700BF03468068DA6890420DD010B4F2
:1072400098689A881C6802400020A25C0A709A68BC
:1072500001329A605DF8044B70470520704700BF0B
:10726000F8B5204A204B0024C2F84041C2F84441FE
:10727000C2F84841C2F84C41C2F80041C2F804418A
:107280001B6833B31949D2F804550A68AD1A1A6855
:1072900025F07F45AA4227460DD8197CDE69AD1A34
:1072A000144419B11F74D3E9052090471EB1334629
:1072B0001A68AA42F1D90E490E4A0B7812789A42FE
:1072C00008D00D490D4A41F823404FF48013C2F80D
:1072D0000031F8BD531CDBB2022B08BF00230B703A
:1072E000EFE700BF001001400C34002008340020FC
:1072F0000534002004340020FC33002000E100E0CD
:107300002DE9F04F8C4A8D4913780978DFF85082C7
:10731000994285B0D8F800A000F07B810133DBB240
:10732000022B08BF002386481370864A076852F86C
:1073300023107B1823F07F43002403605346264626
:107340002046A446ABB11A688A4200F26581DC6827
:10735000C3F800C0891A1044DA6934B13D1825F029
:107360007F45C3E90154DE611E4613460124002B0C
:10737000E9D1002C40F07C8101230093724B734FC4
:10738000DFF8E09143F00103019355464FF0000B05
:1073900046B3D6E901C13446F669694B6C481A68B0
:1073A000ACEB020323F07F43834248D80B442360B5
:1073B00000220121C4E90122E2612174002D5DD087
:1073C0002A689A424DD2284603E00A689A424FD270
:1073D0000846C1699B1A0029F7D12360E161C461A5
:1073E000002ED6D178783978884264D00B4603EBEA
:1073F00043034C1CBA7807EBC303E1B28A421A7903
:10740000397004BF00213970022A9C6844D0032AD5
:1074100038D0012AE8D1227C002AE5D1D3F80CC06B
:10742000C4F804C01969A1605869E06099F80000C7
:107430009B69A3610028B0D062609446ADE7A2EBDF
:107440000C0222F07F428A4202D28B1A2360AFE7FD
:1074500000230122C4E90033A360E36122746DB10B
:107460002A68C8F80040D31A2B60E56125468FE7EB
:10747000D21A0A602360E161C461B1E7C8F8004034
:10748000254685E7002DAFD000232B74ED69002D34
:10749000FBD1C8F80050A5E74DB1AC422B4603D153
:1074A000E4E094422FD01346DA69002AF9D1002390
:1074B000237488429AD1BBF1000F01D1554553D0B6
:1074C000002D56D1234E244A1F4C4FF480334FF4E5
:1074D00000310127C2F880103C43C6F848334FF40E
:1074E0003C60C6F808337760A047154BB7604FF48F
:1074F0003C601D60A047194B1D70002389F80030C7
:1075000005B0BDE8F08FA34200F09180E0692168EA
:10751000D861002800F086802A4603680B44036087
:10752000AA424FF000033978787823741CBF1546BF
:107530004FF0010BBDE700BF0434002005340020EC
:1075400008340020FC33002070E70200EC320020F9
:10755000FEFF7F000010014000E100E0F933002051
:107560000C340020F8330020009B002BC5D0002DE8
:10757000A8D0434B434A1C68D2F80465424FD5F863
:1075800000A03978331B23F07F43DD1CB9B93F4994
:107590003F4B4FF48030C2F844034FF00108C2F86B
:1075A00004034FF40030C1F8800143F00103086088
:1075B000C2F800804FF43C60984787F80080AA45E5
:1075C0002CBF04EB0A0363192E4923F07F43C1F853
:1075D0004035D1F80425921B9B1B22F07F4223F0FB
:1075E0007F4303329A4288D9294BD1F80425C1F848
:1075F000402543F001034FF43C609847234B4FF480
:107600000032C3F80021002389F8003005B0BDE83E
:10761000F08F00260096B1E674BB521A1A6001235F
:107620000093ABE6002339787878237441E7194654
:10763000EA69C8F8002092B9CDE90231114BDFF8B0
:1076400040C001209860019B89F80000CCF8002020
:107650004FF43C609847DDE90231D8F80020C86952
:107660000968D86100287FF458AF59E72946DFE759
:10767000C8F800309A467FE6C8F800309A46CCE752
:107680000834002000100140F933002000E100E040
:1076900070E702002DE9F8431F4D204E204FDFF820
:1076A00098804FF480334FF400324FF001090024EA
:1076B000C6F8802047EA0907C5F848334FF43C6014
:1076C000C5F80833C5F80490B847C5F808904FF4DA
:1076D0003C60C8F80040B847124A134B13491C607D
:1076E0001470134B134A0C700B2114701C8099708A
:1076F0004FF48012C023C6F8802186F8143332601C
:10770000C5F8084586F81133D5F80435C8F80030B7
:107710002046BDE8F88300BF0010014000E100E012
:1077200070E70200F93300200C34002004340020FC
:10773000EC3200200534002008340020074B9B78F1
:107740004BB132B128B10368187C20B959745A6121
:107750007047072070470820704700BFEC320020B8
:107760002DE9F047264CA37882B0002B3CD00028AE
:107770003AD004293CD94369002B35D0814602A870
:1077800099F811300026012B00F8016D0CBF8846D6
:10779000B04617468A4600F0DFF96378A178227870
:1077A0009DF807005D1CEDB2A94208BF3546AA420C
:1077B00022D003EB430304EBC3030121114AC3F8B6
:1077C00008901971D2F804256570C3E9032AC3E94A
:1077D000058700F0E7F90C4B4FF480123046C3F8F0
:1077E000002102B0BDE8F087082002B0BDE8F087B4
:1077F000072002B0BDE8F08700F0D4F90420F0E7DC
:10780000EC3200200010014000E100E0F0B51A4C1D
:10781000A37883B043B338B343692BB3064602A8B9
:10782000002500F8015D357400F096F96278A778BC
:1078300021789DF80700531CDBB29F4208BF2B46FE
:10784000994214D002EB420204EBC202022196607C
:107850001171637000F0A6F9084B4FF480122846AE
:10786000C3F8002103B0F0BD082003B0F0BD00F064
:1078700099F90420F9E700BFEC32002000E100E0B4
:1078800030B50478012C83B027D017D3022C13D144
:10789000384B394D1A78C168AA5C01918DF80040C7
:1078A000002A33D103F10C000122344902F08AFA94
:1078B000334B68461B68984703B030BD31493248A6
:1078C000FFF7B8FC002844D002A8032300F8083DC5
:1078D0002B4B1B68984703B030BD43682B4D19787C
:1078E0002846FFF78FFC40B3254B01908DF80040F0
:1078F0001B6868469847A968EB68AA885B1A9A4291
:107900000AD2234B01221A7003B030BD181D012288
:107910001A4902F0C7FCCBE71648174A0378D35C34
:107920002BB9012215490C3002F04CFAC4E70122B0
:107930001249043002F0B6FCBEE7AA68EB689A422E
:10794000D9D002AB0E4A03F8080D126818469047CA
:10795000D1E70848084A0378D35C2BB901220949CA
:107960000C3002F0BDF9A7E701220649043002F00D
:1079700039FCA1E7A02A0020243E00203834002052
:10798000103400203C34002028340020143400201F
:10799000243400202DE9F045324C89B022600029C2
:1079A00055D00C4680468A882F4809689A46FFF7CA
:1079B00019FC10B109B0BDE8F085A289A1682B4877
:1079C000FFF710FC0028F5D1294D98F810C0D8F821
:1079D0001470284E0FCD6C460FC495E80F0098F830
:1079E00011501CF1000C18BF4FF0010C002D84E861
:1079F0000F00D8F80850D8F80040D8F8043006979F
:107A000014BF0E220022D8F80C708DF8152069469C
:107A10003046194A8DF81CA08DF814C0CDE90275C6
:107A2000CDE9003401F0AEFA0028C3D1D8F8003017
:107A3000124A01331070BDD0114A3378D35C53B968
:107A400006F10C0001220F4902F0BCF9B2E7072051
:107A500009B0BDE8F085301D01220A4902F022FC80
:107A6000A8E700BF10340020143400202834002080
:107A700078E70200A02A0020817802002434002048
:107A8000243E00203834002070B5114C01461148C6
:107A90002678FFF7CFFB05460EB9284670BD0E4885
:107AA0000E4A0378D35C0022227053B90C300122B5
:107AB0000B4902F087F90028EFD0FFF74BFB28466F
:107AC00070BD01220649043002F0ECFBF3E700BF71
:107AD0002434002014340020A02A0020243E00205A
:107AE0003834002070B501461548FFF78BFB04467B
:107AF00008B1204670BD134D134E2B78F35CABB923
:107B000005F10C0002F052F90028F2D10F490C489F
:107B1000FFF790FB0028ECD12B780C49F35C012295
:107B200043B90B48BDE8704002F0DAB8281D02F0F6
:107B3000ABFBE9E70748BDE8704002F053BB00BF6C
:107B400028340020A02A0020243E00203C340020BD
:107B5000AC2A0020A42A002070B4EFF3108472B67F
:107B60000D4B9A68AAB90D490D4E01259D60D1F8BB
:107B7000805035401D60C1F88060D1F884505D6050
:107B80004FF0FF33C1F88430027004B962B670BCA4
:107B9000704701230370F8E7183E002000E100E081
:107BA000FC06FFBD094B9A687AB170B910B4EFF3C7
:107BB000108172B6064A1C6814605C685460986054
:107BC00001B962B65DF8044B70477047183E00205B
:107BD00000E100E001F01F024B09012100EB8300EE
:107BE000914000F01FB800BF01F01F0201234909B6
:107BF000934000EB8100D94300F020B84B0901F01D
:107C00001F0150F82300C84000F00100704700BF7A
:107C100050E8002F0B4640E8003C9CF0000FF7D1E5
:107C20001046704750E8003F43EA010240E8002C4C
:107C30009CF0000FF6D11046704700BF50E8003F9F
:107C400003EA010240E8002C9CF0000FF6D1104638
:107C5000704700BF50E8003F03EB010240E8002CF2
:107C60009CF0000FF6D11046704700BF50E8003F6F
:107C7000A3EB010240E8002C9CF0000FF6D1104667
:107C8000704700BF012350E8002F42EA030C40E890
:107C900000C191F0000FF6D160467047002350E814
:107CA00000CF0CEA030240E8002191F0000FF6D16A
:107CB00060467047B8B130B4D0E90112521A046876
:107CC000D2B2531E2160DBB242B101680A685C1E69
:107CD000551C0D601370E3B2FF2BF6D10368002032
:107CE000187130BC70470E20704700BFF0B583B0EC
:107CF00002AB002503F8015D04461846FFF72CFF90
:107D0000D4E900311A688A4210D9511E19602168DD
:107D1000A3680F6812F8015C0A79268AE068DB1B09
:107D2000DBB29A4206FB050538BF0B719DF80700D0
:107D3000FFF738FF284603B0F0BD00BF30B583B071
:107D400002AB002203F8012D054618460C46FFF74A
:107D500003FF2A681368591C1160E9682A8A641AAB
:107D6000B4FBF2F41C709DF80700FFF71BFF03B093
:107D700030BD00BF826842B110B504464369016856
:107D8000006998470023A36010BD70470EB400B58A
:107D900082B0039929B102AA04AB42F8043D00F075
:107DA000A9F802B05DF804EB03B070472DE9F04F7D
:107DB000924683B051450F4605461E46DDE90CB29A
:107DC000C0F092800B464FF00108B3FBFAF39A45DE
:107DD00008F10108F9D9B04538BFB04612F00109E1
:107DE000A96802D1BBF1000F54D1012402E0013E89
:107DF0000AFB04F4012EFAD8B7FBF4F08245F7D958
:107E00003B4E02E0A968B7FBF4F0335C2A680A2B0A
:107E100004FB107702EB010E01F1010029D0A860EC
:107E20008EF80030D5E90131994202D32846FFF798
:107E3000A1FFB4FBFAF4002CE4D1B9F1000F15D086
:107E4000BBF1000F12D0C34510D92024AB682A68BB
:107E5000591CA960D454D5E901329A420BF1FF3B79
:107E600014D2BBF1000F01D0C345EFD103B0BDE880
:107E7000F08FA8604FF00D005054D5E901108842F2
:107E80001DD2296801EB000E0130C8E72846FFF734
:107E900071FFE6E7930722D42024C345A5D92B68B8
:107EA0004A1CAA605C54D5E9013199420BF1FF3BB1
:107EB00010D2BBF1000F98D0C345F0D195E728460A
:107EC0000193FFF757FFAA682968019B501C01EB3B
:107ED000020EA4E72846FFF74DFFA968E9E7002E48
:107EE0000CBF30242024D8E74FF0010873E700BF0F
:107EF00098E70200002900F0B9822DE9F04F05460D
:107F000087B091460C460E78DFF8C8A64FF00D0BEF
:107F100013E0AB6828680A2E03F1010200EB0301AD
:107F200000F04B82AA600E70D5E901329A4280F0CF
:107F30001B812678002E00F01E810134002E00F0F7
:107F40001A81252EE5D12346002713F8012B2D2A6F
:107F500000F0E380302A00F0E4802B2A00F0D48087
:107F60002A2A00F00D81A2F13006F1B2092903D9C5
:107F70007DE2A1F130060346184606EB860110F8B3
:107F8000012BA2F13004092C02EB4101F1D92E2A78
:107F900000F002814FF00008013301E013F8012BDB
:107FA00002F0FB0168291C46F8D0253A532AC0D8B4
:107FB00001A353F822F000BFA3830200337F020025
:107FC000337F0200337F0200337F0200337F0200E1
:107FD000337F0200337F0200337F0200337F0200D1
:107FE000337F0200337F0200337F0200337F0200C1
:107FF000337F0200337F0200337F0200337F0200B1
:10800000337F0200337F0200337F0200337F0200A0
:10801000337F0200337F0200337F0200337F020090
:10802000337F0200337F0200337F0200337F020080
:10803000337F0200337F0200337F0200337F020070
:10804000337F0200337F0200337F0200337F020060
:10805000337F0200337F0200337F0200337F020050
:10806000337F0200337F0200337F0200337F020040
:10807000337F0200337F0200337F0200337F020030
:10808000337F020087830200337F0200337F0200C8
:10809000337F0200337F0200337F0200337F020010
:1080A000337F0200337F0200337F0200337F020000
:1080B0002B8102000D830200337F0200337F020018
:1080C000337F0200337F02000D830200337F020002
:1080D000337F0200337F0200337F0200337F0200D0
:1080E000337F020075820200337F0200337F02007B
:1080F000ED810200337F0200D1810200337F020054
:10810000337F02008783020047F004071C462346A2
:1081100013F8012B2D2A7FF41DAF47F001071C46F1
:10812000F5E747F002071C46F1E7D9F800301A1DC1
:10813000C9F800201E78AB680A2E0CD12A68591C99
:10814000A96002F803B0D5E90123934203D328467E
:10815000FFF710FEAB682A68591CA960D654D5E910
:1081600001329A42FFF4E5AE2846FFF703FE267877
:10817000002E7FF4E2AE2B7B23BB07B0BDE8F08F6F
:10818000D9F80020111DC9F80010166862782E2A4F
:1081900004F102007FF4FEAE5A78A2F13003092BFD
:1081A00000F2BD814FF0000808EB880802EB480898
:1081B00010F8012FA2F13003092BA8F13008F3D9F0
:1081C0000346E9E6284607B0BDE8F04FFFF7D2BD09
:1081D000D9F800301A1DC9F80020196801974346E4
:1081E00000960A222846FFF7E1FDA2E6D9F8003002
:1081F0001A1DC9F80020D3F80080FB0700F1E880C1
:10820000B8F1000F00F0A181404605F01BF90746C8
:10821000BE4215D9A6B1202100E08EB1AA682B6814
:10822000501CA8609954D5E901329A4206F1FF36F4
:1082300004D328460391FFF79DFD0399BE42ECD17C
:1082400008F1FF3818F8016F002E3FF472AEAB68EA
:1082500028680A2E03F1010200EB030100F090816F
:10826000AA600E70D5E901329A42EBD32846FFF797
:1082700081FDE7E7D9F80020131DC9F80030AB688D
:1082800029681768581C3022A860CA54D5E9012310
:10829000934280F0E6802A68581C7821A860D15467
:1082A000D5E90123934280F0D7800F2F03D93A46B6
:1082B00012090F2AFCD84FF080560DE0AA6081F811
:1082C0000080D5E901329A4202D32846FFF752FDD9
:1082D00036093FF42EAEAB68B7FBF6F21AF802800F
:1082E0002868B8F10A0F06FB127700EB030103F1CF
:1082F0000102E3D1AA6000F803B0D5E901329A4245
:1083000080F049812B6899180132D7E7D9F80030FD
:108310001A1DC9F80020196881EAE173A3EBE17323
:10832000092B40F30E81AA480122A0FB03C3DB08FE
:10833000092B02F10102F8DC4245134638BF4346DF
:10834000039307F00203002E40F09580002B00F00D
:10835000B780B8F1000F00F0F680F80740F1B08068
:108360000029C0F2FF807A0700F1C88007F00303FC
:10837000022B00F0A780CDE9006743460A22284679
:10838000FFF714FDD5E5D9F800301A1DC9F8002013
:10839000196801974346009610222846FFF706FD0C
:1083A000C7E5AB682A68581C2521A860D154D5E9D7
:1083B00001329A42FFF4BDADD6E6AA6000F803B0E0
:1083C000D5E901329A423FD2296811440132A9E528
:1083D0004146A1EB080311F8017BD7B1AB68D5F892
:1083E00000C00A2F03F101020CEB030000F0AF8084
:1083F000AA600770D5E901329A42EAD32846039170
:10840000FFF7B8FC0399A1EB080311F8017B002FDB
:10841000E4D19E427FF68DAD202702E0002E3FF48E
:1084200088ADA9682A68481CA8605754D5E901217D
:10843000914206F1FF3604D328460393FFF79AFCD6
:10844000039BB342EAD174E52846FFF793FCAB687F
:1084500029685A1C194465E52846FFF78BFCAB6870
:1084600023E72846FFF786FCAB6814E770471846F9
:10847000002623468BE5002920DB7A071ED41BB19A
:10848000B8F1000F3FF46CAFF8073FF569AFBEB12C
:10849000039BB342BFF464AF2023AA68501CA860BA
:1084A00028688354D5E90102824206F1FF3640D2A2
:1084B00036B1039AB242F0D1164651E7013EDEE7EB
:1084C00000264DE7B8F1000F7FF455AF002E6AD0BB
:1084D000039BB342BFF44FAF3023AA68501CA8607F
:1084E00028688354D5E90102824206F1FF3618D28A
:1084F000002E58D0039AB242EFD13CE7AA68531C31
:10850000AB602B682B209854D5E901329A42FFF4D6
:108510002DAF28460491FFF72DFC049926E703466A
:1085200038E52846CDE90413FFF724FCDDE9041300
:10853000DEE72846CDE90413FFF71CFCDDE9041350
:10854000B6E70122F8E646460AE7474660E6AA6033
:108550000CF803B0D5E901329A4226D22B6898185C
:10856000013245E7AA68531CAB602B682D20985454
:10857000D5E901329A42C1F10001FFF4F7AEC8E734
:10858000AA6000F803B0D5E901329A4217D22968EF
:108590001144013264E62846FFF7ECFBA9682B681A
:1085A0004A1C19448AE60026E5E628460391FFF7AF
:1085B000E1FBA8682B680399421C184418E7284679
:1085C000FFF7D8FBAB6829685A1C194448E600BF7E
:1085D000CDCCCCCC98E70200FFF76CBB2DE9F04185
:1085E000058ACE1C043D2E440746B6FBF5F6FFF780
:1085F0007DFB78B3F6B24FF48073013E0446C5802C
:108600000760838027D08046002509E06379AE4269
:1086100003F101036371C8F80000076080461AD0B7
:108620003846FFF763FB01350028EFD16679721EEB
:1086300014D02346013082421B68FBD11F684EB123
:10864000002523682146013538461C46FFF776FB96
:10865000AE42F6D100242046BDE8F0812768EFE75E
:1086600004300121FFF7F6BAF8B5012104460430C1
:10867000FFF7FCFAC0B200B1F8BD6679721E12D0E5
:108680002346013082421B68FBD11F68002EF3D0C5
:10869000002523682146013538461C46FFF74EFB6E
:1086A000AE42F6D1F8BD2768F2E700BF2DE9F843E6
:1086B000C788467907FB06F6043E02EB030C044626
:1086C000664503F1040015468846B0FBF7F238BF53
:1086D000F51A07FB120012B1013A2468FCD13E1AC8
:1086E000AE4228BF2E469DB14FF000090430AD1BAD
:1086F0002044324608EB090104F070FEAF42B14459
:1087000024683E464FF0000028BF2E46002DEDD1D4
:10871000BDE8F8832DE9F843C7884679154607FB7D
:1087200006F6043E05EB030C1A1D66450446884612
:10873000B2FBF7F038BFF51A07FB102110B1013872
:108740002468FCD17E1AAE4228BF2E469DB14FF060
:10875000000904312144AD1B324608EB090004F046
:108760003DFEAF42B14424683E464FF0000128BFB1
:108770002E46002DEDD1BDE8F88300BF41DF7047E4
:10878000064A074B10B5002414701C60BFF35F8FBE
:108790000449054800F040F8204610BD4834002048
:1087A0004C340020A8E702004034002000B583B01C
:1087B00002A8002300F8013DFFF7CEF9F1EE103AD0
:1087C00023F09F03E1EE103ABFF35F8F0A4B402284
:1087D000C3F884219DF80700FFF7E4F904F0FEFBDD
:1087E00028B920BF40BF20BF03B05DF804FBFFF7EE
:1087F000C5FF03B05DF804FB00E100E082680023E0
:10880000936082681361826853618268D360826872
:10881000536082681360704701600B6843604A6868
:10882000934204BF00234360704700BF436843B1D5
:10883000026891680B4443605268934204BF00236E
:108840004360704730B4184DA5F59472AB1ADB1035
:1088500003EBD3735B1002EBC30152F83330984241
:1088600028BF0C4605D311E052F8333098420CD2A1
:1088700021468B1ADB1003EBD3735B108A4202EBA9
:10888000C304F1D3094830BC70470D46984204D95F
:1088900004F10802AA42D9D3F4E76068034B002828
:1088A00008BF1846EFE700BFFCE80200C0E702007F
:1088B00070B5161E07DD0C468D1914F8010BFFF775
:1088C00011F9A542F9D1304670BD00BF10B50C4674
:1088D0002046FFF7D9F80528FAD0012010BD00BFC7
:1088E00030B4904B1B78062B20D08F4B1B68062B87
:1088F00000F085808D4AD2F8883043F47003C2F8C6
:108900008830BFF34F8FBFF36F8F4FF01023D3F832
:108910000022002AC0F28681D3F80432002BC0F274
:108920008181834B834A1A6030BC7047824B1B683D
:108930001D07DAD1814B1B6803F0F002302A00F0EA
:108940009E8003F0E003402B00F099807B4B1B6876
:1089500003F0F003302B00F0B980784B1B6803F074
:10896000F002302A56D003F0E003402B52D0734B74
:108970001B6803F0F003302B00F0B6806F4B1B68D0
:1089800003F0F002302A66D003F0E003402B62D0FF
:108990006A4B1B6803F0F003302B00F0B580674B87
:1089A0001B6803F0F003302B79D0644B1B6803F095
:1089B000F003502B00F0E480604B1B6803F0F002E2
:1089C000302A37D003F0E003402B33D05B4B1B68D9
:1089D00003F0F002302A03D003F0E003402B84D1EF
:1089E0004FF08043D3F80024D20744BF6FF0010258
:1089F000C3F800244C4B1B68062B7FF47BAF504B15
:108A00001B68062B7FF476AF4E4A136843F48063ED
:108A100013606FE74C4B434A1B6812784B49C3F312
:108A20004233062A0B6048D1434B1B6819077FF479
:108A30005CAF9CE7464A3B4B12681B78454902F005
:108A40004F02062B0A607FF450AF3B4B1B6819079F
:108A50007FF44BAFBAE74FF080430022C3F80C21FC
:108A6000C3F81021C3F838252E4B1B78062B7FF452
:108A70003CAF314B1B681B077FF437AF88E7364BA1
:108A8000284A1B6812783549C3F30423062A0B6071
:108A9000EAD1294B1B681C077FF427AF56E7304CFF
:108AA000204A304912783048304B05252560012591
:108AB0000D6000243F2104601960062A7FF415AF81
:108AC0001D4B1B681C077FF410AF6EE7154B284A3F
:108AD0001B7828491160062B7FF407AF164B1B68E3
:108AE00018077FF402AF38E723490E4BCA681B789A
:108AF00022F08072062BCA607FF4F7AE0E4B1B6823
:108B00001A077FF4F2AE39E7064B1C4A1B780321A3
:108B1000062B11607FF4E9AE074B1B681D077FF43D
:108B2000E4AE3CE7E00F00F03001001000ED00E0A3
:108B3000B42A00200090D003E40F00F0E80F00F00A
:108B4000340100103C170040440200103C05004076
:108B500058020010E40E004024030010403501408C
:108B600010560040885600401856004014560040E9
:108B700074C007400DF0ADBAF0ED00E0A005004074
:108B80004FF08053404AD3F80414C2F82015D3F8AC
:108B90000814C2F82415D3F80C14C2F82815D3F819
:108BA0001014C2F82C15D3F81414C2F83015D3F8E9
:108BB0001814C2F83415D3F81C14C2F84015D3F8B1
:108BC0002014C2F84415D3F82414C2F84815D3F879
:108BD0002814C2F84C15D3F82C14C2F85015D3F849
:108BE0003014C2F85415D3F83414C2F86015D3F811
:108BF0003814C2F86415D3F83C14C2F86815D3F8D9
:108C000040142248C2F86C15D3F844140378C2F813
:108C10007015062B7FF469AE1D4B1B6818077FF497
:108C200064AEC9E61B4B0122C3F80425D3F8002427
:108C3000002AFBD04FF0102315221649C3F800225A
:108C4000D1F80034002BFBD04FF010221521114B2E
:108C5000C2F80412D3F80024002AFBD000220D49E8
:108C6000C3F80425D1F80034002BFBD0BFF34F8F9D
:108C700009490A4BCA6802F4E0621343CB60BFF3B0
:108C80004F8F00BFFDE700BF00C00040E00F00F0C5
:108C9000E40F00F000E0014000ED00E00400FA0500
:108CA000054A4FF0A043105CD3F8043523FA00F0D6
:108CB000C04300F001007047ECEC0200044B195C6B
:108CC0004FF0A04201238B40C2F80C35704700BF23
:108CD000ECEC0200044B195C4FF0A04201238B40E6
:108CE000C2F80835704700BFECEC02004FF0A0431B
:108CF00010B44FF480204FF400344FF400214FF4AF
:108D00008012C3F80845C3F80805C3F80815C3F86E
:108D100008255DF8044B70474FF0A04310B44FF4A2
:108D200080204FF400344FF400214FF48012C3F838
:108D30000C45C3F80C05C3F80C15C3F80C255DF8F9
:108D4000044B7047074B4FF0A041185CD1F8043535
:108D50000122824022EA03001340C1F80805C1F84D
:108D60000C357047ECEC0200054A4FF0A043105C54
:108D7000D3F8103523FA00F0C04300F0010070472B
:108D8000E8EC02000D2809D00E2809D00F2809D0E0
:108D900010280CBF03204FF0FF30704700207047B1
:108DA0000120704702207047014B185C704700BFDC
:108DB000E8EC0200C20730B41AD54FF0A0430322FA
:108DC000C3F844274FF40035C3F848274FF48024F4
:108DD000C3F84C274FF40021C3F850274FF48012FA
:108DE000C3F80855C3F80845C3F80815C3F80825A3
:108DF00083070AD54FF0A0430C22C3F83427C3F8E9
:108E00003827C3F83C27C3F8402730BC704700BF61
:108E100010B570B101280BD10D4C2369A0703BB186
:108E2000D3E900230120226198472369002BF7D161
:108E300010BD074CA36801226270002BF8D0D3E963
:108E400000230020A2609847A368002BF7D1EFE72A
:108E50005034002070B910B5074CA368012262702D
:108E60003BB1D3E900230020A2609847A368002B00
:108E7000F7D110BD704700BF5034002030B5012835
:108E800083B01CD015D3032811D100F0C9F802A873
:108E900000231F4C00F8013DFEF75EFEE368013B36
:108EA000E360E56865B39DF80700FEF77BFE03B05D
:108EB00030BD184B0122C3F8802003B030BD02A89A
:108EC0000023134C00F8013DFEF746FE237853B112
:108ED000E3689DF8070001330122E360A270FEF70A
:108EE00061FE03B030BD0C486360A3602361E360A2
:108EF00000F088F804F072F830B101232370E7E73E
:108F000000F0A0F8A570CEE700F08AF8F5E700BF02
:108F10005034002000E100E0118E020030B585B031
:108F2000047845688DF80040D0E90240064A074BB6
:108F3000039053F8213001958DF8084052F8211024
:108F40006846984705B030BD64340020683400207E
:108F500030B585B0047845688DF80040D0E902400E
:108F6000064A074B039053F8213001958DF80840CD
:108F700052F821106846984705B030BD643400208F
:108F800068340020F0B51A4B06781A4D0C6991F838
:108F90001DE045F826400746174803F806E040F86C
:108FA00026200C4694460FCC89B06D460FC594E838
:108FB0000F0085E80F000496BEF1000F0BD0BCF146
:108FC000000F0E4A694607F1040008BF002201F0B5
:108FD0002DF809B0F0BDBCF1000F094A694607F150
:108FE0000C0008BF002200F0B1FD09B0F0BD00BFC9
:108FF000243E002064340020683400201D8F0200CD
:10900000518F0200054A13792BB901211060537169
:109010001846117170478520704700BF6C340020DE
:10902000074B1A68D20704D4C021012283F8001329
:109030001A604FF080430122C3F81825704700BF23
:1090400000E100E0044B01221A604FF08042D2F8A8
:109050001834DB03FBD470470C00004010B5154BEF
:109060001A6882B07AB10021134A19601B685079DE
:1090700000934FF080410123009CC1F8083310B9E0
:109080001168537188470D4B1A6882B100221A602B
:109090001B6801934FF080420221074B0198C2F8F0
:1090A00008131B68012002B0BDE81040184702B049
:1090B00010BD00BF000100406C34002004010040DE
:1090C00030B51D4C94F8585083B095BB4FF0FF332A
:1090D0002946042204F15400C4E90033C4E90233F0
:1090E000C4E90433C4E90633C4E90833C4E90A33E4
:1090F000C4E90C33C4E90E33C4E91033C4E91233B4
:10910000236504F076F90D4A0D4B0E491D60C02011
:1091100082F80603402010601B68019301984FF00D
:1091200000430122284684F85820C1F8043303B0D4
:1091300030BD082003B030BD7434002000E100E0F1
:109140007C61004000600040034B93F85800003001
:1091500018BF0120704700BF74340020F0B56C4B7D
:109160001C1894F93050002D68DA8E78C6F340064A
:109170009646002E5CD11D6A013500F0B5800924A9
:109180000C2553F8247001375BD004F1010C53F81F
:109190002C70013700F0B380A71CAF4246D253F8C1
:1091A0002720013200F0AD8004F1030CAC453DD224
:1091B00053F82C70013700F0A28004F1040CAC4588
:1091C00034D253F82C70013700F0998004F1050C6B
:1091D000AC452BD253F82C70013700F0908004F18D
:1091E000060CAC4522D253F82C70013700F0878072
:1091F00004F1070CAC4519D253F82C7001377ED01E
:1092000004F1080CAC4511D253F82C70013776D01C
:1092100004F1090CAC4509D253F82C7001376ED01B
:109220000A34AC4202D2DC6A013409D00420F0BD19
:109230001D68013567D001240825A2E70820F0BD8C
:109240000B241F1865B243F824E087F83050002E35
:1092500051D08A78540714D4D6073BD44C784FF0B9
:10926000A04600F5E072A40046F82240294EC4084A
:1092700000F0070C375D012202FA0CF23A43325536
:109280008A780C7812F0020209D1083D2B4410466E
:1092900093F8502042EA841483F85040F0BDAB00AC
:1092A00003F1804303F5C0430202D3F8101521F403
:1092B000473121F44071C3F810152404D3F8101578
:1092C00004F4403402F4F85222430A43C3F8102550
:1092D0000020F0BD820002F1A042D2F8004724F045
:1092E0000204C2F80047C1E7082684F83060C3F8DA
:1092F00020E0354634461C4484F84800A9E764461B
:109300009FE73C469DE700251A6084F83050A0E7AF
:1093100074340020C834002070B42E4D2E1883B051
:1093200096F93030072B1CDD2B4493F848309B090D
:10933000032B41D0012B14BF4FF440314FF40031C7
:10934000800000F1A040D0F8002722F44032C0F89D
:109350000027D0F800370B43C0F8003703B070BCCB
:109360007047DAB2072AF9D8980000F1804000F57A
:10937000C04003F14002D0F81045920092B244F090
:10938000010402F18042C0F8104502F5C0420020FD
:109390000190019C10600029E0D096F9302055F82A
:1093A0002220002ADAD001220B4902FA03F3C1F885
:1093B000043303B070BC70474FF0A043D3F81035AE
:1093C000C34013F0010F0CBF4FF400314FF4403194
:1093D000B6E700BF74340020006000404FF0A043A7
:1093E000D3F8103523FA00F000F00100704700BFF9
:1093F0002DE9F04186B00023A14A01931668012EA1
:1094000000F054811E469F4B1A68012A00F05D81CE
:109410009D4B1A68012A00F06A819C4B1A68012A48
:1094200000F077819A4B1A68012A00F08481994BE9
:109430001A68012A00F09181974B1A68012A00F0FE
:109440009E81964B1A68012A0CD0954B1B68012B04
:1094500000F0A58116F0FF0F15D1002E30DB06B00D
:10946000BDE8F0818F4AD2F804231706EDD500221B
:109470001A601A6804926033049A1B68012B46F044
:10948000800600F08C81884F00240125A30003F1A1
:109490008043354203F5C0434FEA45050BD0D3F86E
:1094A000100557F82420D3F81015C0F30420C1F399
:1094B000014102B190470134082CE7D1002ECEDAE9
:1094C00000224FF0FF33CDE90223774C012602AF93
:1094D00094F950305D1C2CD0DBB223F0C00006AAFA
:1094E0004FEAD00C02EB0C0E03F007021EF80C1C26
:1094F00006FA02F211421CD02518990995F930306C
:1095000054F82330002B00F09881032900F0988153
:109510004FEA800C0CF1A04C1EF8145CDCF800E75C
:109520001540CEF3014E40F05C81BEF1030F00F018
:10953000DE81002594F95130581C2DD0DBB223F088
:10954000C00006AA4FEAD00802EB080E03F007019C
:109550001EF80C2C06FA01FC12EA0C0F1CD0221883
:10956000990992F9303054F82330002B00F05B81D8
:10957000032900F05B81820002F1A0421EF8148CE6
:10958000D2F800E718EA0C0FCEF3014E40F0368116
:10959000BEF1030F00F0A68194F95230591C2DD072
:1095A000DBB223F0C00006AA4FEAD00802EB080E97
:1095B00003F007011EF80C2C06FA01FC12EA0C0F4E
:1095C0001CD02218990992F9303054F82330002B1E
:1095D00000F03C81032900F03C81820002F1A042AE
:1095E0001EF8148CD2F800E718EA0C0FCEF3014EE7
:1095F00040F0E380BEF1030F00F06E8194F9533028
:109600005A1C2DD0DBB223F0C00006AA4FEAD008C6
:1096100002EB080E03F007011EF80C2C06FA01FC01
:1096200012EA0C0F1CD02218990992F9303054F824
:109630002330002B00F0ED80032900F0ED80820044
:1096400002F1A0421EF8148CD2F800E718EA0C0FC1
:10965000CEF3014E40F0BC80BEF1030F00F000815C
:10966000002D3FF4FCAE4FF0A043019AD3F8103523
:1096700093423FF4F4AE029A0193039228E700BFAD
:109680000061004004610040086100400C6100403E
:109690001061004014610040186100401C610040EE
:1096A0007C61004000600040743400209A49D1F889
:1096B000041311F0010170D0136013680493049B2C
:1096C000964B1A68012A7FF4A3AE934AD2F804237A
:1096D00097077FF59DAE00221A601B680493049BD8
:1096E0008F4B1A68012A46F002067FF496AE8A4A2A
:1096F000D2F8042355077FF590AE00221A601B684C
:109700000493049B874B1A68012A46F004067FF4F1
:1097100089AE814AD2F8042314077FF583AE002274
:109720001A601B680493049B7F4B1A68012A46F059
:1097300008067FF47CAE784AD2F80423D0067FF581
:1097400076AE00221A601B680493049B774B1A685C
:10975000012A46F010067FF46FAE6F4AD2F8042358
:1097600091067FF569AE00221A601B680493049B82
:109770006F4B1A68012A46F020067FF462AE664AF3
:10978000D2F8042352067FF55CAE00221A601B68F3
:109790000493049B46F0400653E60E4633E6654BC1
:1097A00000221A601B6805934FF0A043059AD3F876
:1097B0001035019346F000464CE6BEF1020F7FF4EF
:1097C0001DAF032963D0002B3FF418AF984715E76E
:1097D000BEF1020F7FF444AF032969D0002B54D1AE
:1097E0003EE7BEF1020F7FF4A4AE032900F09180A2
:1097F0000025002B3FF49EAE98479BE6BEF1020F7A
:109800007FF4CAAE032956D0002B3FF4C5AE98476B
:10981000C2E603297FF424AF17F8082042EA0C02BD
:1098200007F808200BE703297FF4B6AE17F80820E5
:1098300042EA0C0207F808209DE603297FF479AE7E
:1098400017F80C50154307F80C5061E603297FF414
:10985000D5AE17F8082042EA0C0207F80820BCE64B
:109860000329BBD14FF4003ED2F800C72CF4403C92
:10987000C2F800C7D2F800C701354CEA0E0CEDB2B1
:10988000C2F800C7002B3FF4EEAE9847E8E64FF46D
:10989000403ED2F800C72CF4403CC2F800C7D2F8D2
:1098A00000C701354CEA0E0CEDB2C2F800C78AE7DA
:1098B0004FF4403ED8E74FF4403ED2F800C72CF4B6
:1098C000403CC2F800C7D2F800C701354CEA0E0C84
:1098D000EDB2C2F800C797E703297FF474AF4FF4E5
:1098E000003ED6E703298FD14FF4003EE5E7032978
:1098F0007FF47FAF4FF40035DCF8002722F44032CC
:10990000CCF80027DCF800272A43CCF800270125F3
:109910006FE74FF44035EFE700600040046100401E
:10992000086100400C61004010610040146100407B
:10993000186100407C610040014B1B68184700BF64
:10994000D0340020104B984201D00020704730B531
:1099500083B002A8002300F8013D0D46FEF7FCF895
:109960000A4B1C7934B19DF80700FEF71BF9112052
:1099700003B030BD01229DF807001D601A71FEF78B
:1099800011F92046F4E700BF00200040D034002049
:1099900030B56C4AD2F8043399058BB066D5D2F84D
:1099A0002431002B62D00023C2F82431D2F82431B4
:1099B00003934FF40171644B0398C2F8081393F8B2
:1099C000291009B9012151605E4902228DF8182041
:1099D000D1F88024C1F880249869D96809920022BE
:1099E000CDE90710C3E90622D3E9001406A8A04771
:1099F000544AD2F81C31BBB1534B186A596988429A
:109A000069D350480022C0F81C21D0F81C010190F5
:109A1000019849B198688DF8182008915A6107900B
:109A2000D3E9001206A89047464AD2F84431DBB188
:109A30000021454BC2F84411D2F8440193F8291093
:109A40000090009809B1012111609A6962B1002269
:109A5000586AD9689A610122CDE907108DF818205B
:109A600006A8D3E9001290470BB030BD354AD2F8B2
:109A700004335B07BCD5D2F80831002BB8D0324B89
:109A8000996900293CD00021C2F80811D2F80811C8
:109A900004910499D868596AD2F8182542545A6A30
:109AA000996901325A625A6A8A42A1D1DA691968FF
:109AB000002A2ED0D8685D6A1C699A61079000223E
:109AC0000120DC60DA615A628DF8180008955B6845
:109AD00006A898478CE793F8280000F0FF040028B8
:109AE0008FD1C2F81C41D2F81C11029102999C68D6
:109AF000186A196A205C01311962C2F81C0593E7E3
:109B0000C2F80811D2F8080105900598D2F8182576
:109B1000C9E793F8292012B90A4A01205060094A7E
:109B20004FF40170C2F80803586ADA6808900024FC
:109B3000012007928DF818005A689C6106A890478A
:109B400056E700BF00200040D83400202DE9F04146
:109B50005E4F06792C2505FB067582B095F82A30F4
:109B6000002B40F087800D46044659490068904616
:109B7000FFF7E8FE002879D12B68591C0CD0012290
:109B80004FF0A04102FA03F3C1F808352B6803F542
:109B9000E073032241F823206B685A1C06D003F5BA
:109BA000E0734FF0A042002142F823102368AA6915
:109BB000C3F82425297D6B7D22680B43C2F86C35E0
:109BC000D5E900122368C3F81425C3F80C152B7DC2
:109BD000012B53D02C2303FB06F3FA18C2F80480A0
:109BE0002A69FA50B8F1000F2DD022682B7F394D29
:109BF0000021C2F81C11D2F81C2100922268DDF865
:109C000000C0C2F84411D2F84411226801910199B0
:109C1000C2F804532168090B4AB25B01002ADBB287
:109C20004EDB02F1604202F5614282F800332368A4
:109C3000294D1B0B5AB2520903F01F03012101FAEF
:109C400003F345F822302C23246803FB067300221B
:109C500004250121C4F8005583F82A10C3E906221F
:109C600083F829205A6102B0BDE8F081112002B0CA
:109C7000BDE8F081082002B0BDE8F081AB68591C56
:109C800006D003F5E0734FF0A042002142F8231004
:109C9000EB685A1C0DD001224FF0A04102FA03F3E9
:109CA000C1F80835EB6803F5E073032241F823207F
:109CB000EB682268A968C2F80835C2F8101589E770
:109CC000064A01F00F010A441376B0E7D8340020A9
:109CD000919902008000020000E100E0FCEC00E04D
:109CE000F0B5314E05792C2303FB056385B05C6923
:109CF000002C53D11C62996083F828405A61026895
:109D0000C2F81C41D2F81C11026802910121029F85
:109D100091600268D3F808C0C2F81C41D2F81C1147
:109D200001910199D3F820E0196A5F681CF80EE0F0
:109D300001311962C2F81CE517B1204605B0F0BD2B
:109D40001A6A5C690168944203D819E093F82820E4
:109D50003ABBD1F81C21002AF8D0C1F81C71D1F807
:109D60001C210392039AD3F820E01A6A1CF80EE033
:109D700001321A62C1F81CE51A6AA242E9D30168ED
:109D8000D1F81C31002BFBD00123CB6000202C2309
:109D900003FB056500236B6105B0F0BD112005B024
:109DA000F0BD0F20F3E700BFD83400200379044A48
:109DB0002C2101FB03235869003018BF0120704794
:109DC000D8340020F0B4514D04792C2303FB045304
:109DD00086B05F6827B103684FF40176C3F8086363
:109DE0002C2303FB04539E696EB1DE690EB3002F72
:109DF00000F0848003684FF401721120C3F804233B
:109E000006B0F0BC704793F829709A61D9605E6221
:109E1000DE61002F60D02C2202FB045201685368DF
:109E200053B14FF40173C1F80433002006B0F0BC05
:109E300070471961DA61EEE7C1F84431D1F8443175
:109E40000393039B0368D3F82461D3F80871D3F814
:109E5000441157B9002936D1002EF4D02C2303FB2E
:109E600004540023A3610320E0E7002EF6D161BB78
:109E7000966996B1C3F80811D3F8081104910499B2
:109E8000D668516AD3F818357354536A916901330F
:109E90005362536A9942D5D808E0C3F80861D3F8F1
:109EA000081105910599D3F81835536A2C2303FB43
:109EB0000454002294F82930A2610BB303680121F5
:109EC00010461960B2E7002EC8D12C2303FB0454BE
:109ED0000023A3610F20A9E70368C3F82471D3F816
:109EE000242103680192019AC3F80871D3F808216C
:109EF00003680292012202991A608CE7112095E70B
:109F0000026801211846516090E700BFD834002054
:109F1000F0B5444BD3F8242189B0002A52D0002157
:109F2000C3F82411D3F82421029202228DF81020C4
:109F3000029AD3F880043C4AC3F880040790D3F80F
:109F40003C05D3680690C2E9061105931168536871
:109F500004A89847334BD3F84421BAB10021324AC0
:109F6000C3F84411D3F8444190690194019C68B14D
:109F7000D3F83C35D06806930123C2E90611059059
:109F80008DF8103004A8D2E900139847254BD3F878
:109F90002021AAB10021C3F82011D3F82001224AC0
:109FA00000900098506958B1D3F84C05936806901A
:109FB0008DF810105161059304A8D2E90013984759
:109FC00009B0F0BDD3F810110029C3D0C3F8102197
:109FD000D3F810111448039103998169D3F83C45D3
:109FE0008C42B7D1C569C768D0E900168DB1D3F8E6
:109FF00000C285612CF02005C261C3F800520369DC
:10A00000C3600122CDE905748DF8102004A8B04783
:10A01000A0E701238561CDE905748DF8103004A80F
:10A02000B04797E700200040043500202DE9F043B9
:10A030000779674E4FEAC70808EB070306EB83036F
:10A0400085B093F82030002B40F096800D460446F2
:10A05000604900689146FFF775FC002840F0888051
:10A060002B68591C0CD001224FF0A04102FA03F3D7
:10A07000C1F808352B6803F5E073032241F823206B
:10A080006B685A1C06D003F5E0734FF0A042002124
:10A0900042F823102368AA69C3F82425297D6A7D24
:10A0A00023680A43C3F86C25D5E900312268C2F859
:10A0B0000C35C2F814152B7D012B61D008EB07027B
:10A0C0009200B318C3F804902B69B350B9F1000F94
:10A0D0003DD021682B7F404D0022C1F81021D1F8DE
:10A0E000101100912168DDF800C0C1F82021D1F8DD
:10A0F000201101912168DDF804C0C1F82421D1F8B4
:10A10000241102912168DDF808C0C1F84421D1F87A
:10A110004411226803910399C2F804532168090B82
:10A120004AB25B01002ADBB24CDB02F1604202F56D
:10A13000614282F800332368284D1B0B5AB2520942
:10A1400003F01F03012101FA03F345F822304744CD
:10A15000226806EB8706002301240821C2F80015B7
:10A1600086F82040C6E90633736105B0BDE8F08388
:10A17000112005B0BDE8F083082005B0BDE8F083EC
:10A18000AB68591C06D003F5E0734FF0A0420021E4
:10A1900042F82310EB685A1C0DD001224FF0A04169
:10A1A00002FA03F3C1F80835EB6803F5E073032204
:10A1B00041F82320EB682268A968C2F80835C2F884
:10A1C00010157BE7064A01F00F010A441376B2E747
:10A1D00004350020119F02001003020000E100E09E
:10A1E000FCEC00E001F06043B3F1005F2CD1F0B46F
:10A1F0000579244EEF007C1906EB840482B0636974
:10A2000023BB6261A1600268C2F82031D2F820C18C
:10A210000268CDF804C0DDF804C0C2F85831D2F8A5
:10A22000582100920268DDF800C0D4F814C0C2F8CA
:10A230004415C2F848C502680121916062684AB1BC
:10A24000184602B0F0BC704710207047112002B0D1
:10A25000F0BC7047036800E08AB9D3F82011D3F846
:10A2600058210029F8D0002A14BF0F2000207B19A4
:10A2700006EB830300225A6102B0F0BC70470F2046
:10A28000F5E700BF043500200379054A03EBC3035B
:10A2900002EB83035869003018BF0120704700BFEC
:10A2A0000435002001F06043B3F1005F7ED1F0B4CB
:10A2B0000579464CEB005E1904EB860682B07668A1
:10A2C00026B107684FF4047CC7F808C32B4404EB9D
:10A2D00083039D69002D42D19A61DD61D9600368D5
:10A2E000C3F81051D3F8106103680196019EC3F8BA
:10A2F0004451D3F8445103680095009DC3F83415C8
:10A30000C3F83825036801221A6005790368EE0056
:10A31000721904EB820252685AB14FF40472C3F806
:10A320000423002002B0F0BC7047002942D100286D
:10A3300046D1D3F81021D3F84411D3F82401002AD0
:10A34000F3D0354400284FF0000304EB850414BF1C
:10A35000032018469942A36118BF0F20E2E7DD6988
:10A360003DB12EB303684FF40472C3F804231120E7
:10A37000D8E71961DA610368C3F81051D3F81061A6
:10A3800003680196019EC3F84451D3F84451036811
:10A390000095009DC3F83415C3F838250268D2F83B
:10A3A000003243F02003C2F80032AEE710207047BD
:10A3B0001120B7E7354404EB85040F20A261B1E713
:10A3C000354404EB85040320A161ABE7043500208C
:10A3D0000220FEF7B7BC00BF2DE9F0470D46064648
:10A3E000FEF7D0FC03281ED8012D04461DD00ED345
:10A3F000022D18D11B4B00EB40041C44657895B12D
:10A40000194B1B687BB12846BDE8F0471847174831
:10A41000FDF7FCF9134B164A04EB44010B44125DA3
:10A420009D78AA42EBD0BDE8F0870E4F4FEA400876
:10A4300008EB0003FA18FD5C53782BB9A04447449D
:10A440000B4BBA781A55DAE7DFF8289007484A46E6
:10A450004FF40041FDF784F90028EFD189F800603E
:10A46000ECE700BF8C350020A03500204C350020E3
:10A47000A83500202835002010B50078FEF782FCB2
:10A4800003280BD8064B00EB40001844407828B155
:10A49000044B1B6813B1BDE81040184710BD00BF46
:10A4A0008C350020A0350020B44B1B68DB0700D49E
:10A4B000704770B5B24DB34E2B7834786BB1B24B58
:10A4C0001B7800202870002B4BD0FEF703FC0120E6
:10A4D000FEF700FC0320FEF7FDFB172C40D8DFE859
:10A4E00014F0B600F400F400DC000801CA00130107
:10A4F000EE005000430050004300610018001800B7
:10A50000180018001800660077008B009F005D009F
:10A510005D009E48FDF77AF9D4F11104054600F07C
:10A520000081002840F0FD80012C13D0C82303FBDC
:10A5300004F44FF4FA704FF400430021C3FB04010C
:10A540004FF47A72002303F0DFFE2A4601468F485B
:10A55000FDF706F90220FEF7B1FB8B4B01221A70C2
:10A5600070BDFEF7C3FBB8E7012318462B70FEF75A
:10A57000E9FB00224FF480418548BDE87040FDF7BB
:10A58000EFB8012318462B70FEF7DCFB002240F6E3
:10A59000CD417F48BDE87040FDF7E2B8FEF7BCFB57
:10A5A000347070BDFEF7B8FB0C23337070BD764B72
:10A5B0001B78002B00F0BF800020FEF78BFB0120F2
:10A5C000FEF788FB0320FEF785FB1223337070BD76
:10A5D0006D4B1B78002B00F0B1800020FEF77AFB5A
:10A5E0000120FEF777FB0320FEF774FB0020FEF747
:10A5F00065FB1323337070BD634B1B78002B00F099
:10A60000AD800020FEF766FB0120FEF763FB032010
:10A61000FEF760FB0120FEF751FB1423337070BD81
:10A62000594B1B78002B00F083800020FEF752FB73
:10A630000120FEF74FFB0320FEF74CFB0020FEF746
:10A640003DFB0120FEF73AFB1523337070BD4E4BE6
:10A650001B78002B00F08A800020FEF73BFB0120D6
:10A66000FEF738FB0320FEF735FB4948FDF7CEF82F
:10A670000023337070BD0020FEF712FB002860D06D
:10A680000020FEF727FB05233370002241F69A11C4
:10A690003F48BDE87040FDF763B80020FEF700FBBF
:10A6A00000285ED00020FEF715FB46F2666103230A
:10A6B000337000223648BDE87040FDF751B80020E5
:10A6C000FEF7FCFA0723337070BD0020FEF7E8FAAE
:10A6D000D0B30020FEF7FEFA022C4EF2666118BFDE
:10A6E0004FF40031347000222948BDE87040FDF776
:10A6F00037B80020FEF7D4FAD8B30020FEF7EAFA04
:10A700004FF400310423D3E70020FEF71BFB0623A0
:10A710003370002240F6CD411D48BDE87040FDF782
:10A720001FB80220FEF7D6FA174B00221A7070BD30
:10A73000FEF7DCFA82E7FEF7D9FA46E7FEF7D6FA2B
:10A7400054E7FEF7BBFA9EE7FEF7B8FA43F233315F
:10A7500041F69A13022C08BF1946C3E7FEF7C6FA62
:10A7600058E7FEF7ABFA41F69A11A0E7FEF7BEFAFA
:10A770007BE7FEF7A3FA43F23331C3E798350020B5
:10A780009C350020A4350020293500202C350020E0
:10A790006C350020032801D900207047FEF7E4BA89
:10A7A00038B5C54B1C6814F0010401D1204638BDF2
:10A7B000C24C2378054663B1C14B1B780020207042
:10A7C00023B3FEF787FA0120FEF784FA0320FEF791
:10A7D00081FA172D00F26D81DFE815F0C300EC005F
:10A7E000EC001001D90023010201360128001B00F2
:10A7F00028001B006A007100710071007100710077
:10A800009A00AD0035004B0064006400FEF76EFA5C
:10A81000DFE7012318462370FEF794FA00224FF475
:10A820008041A848BDE83840FCF79ABF012318468C
:10A830002370FEF787FA002240F6CD41A148BDE81B
:10A840003840FCF78DBF9E4B1B78002B00F0168123
:10A850000020FEF73FFA0120FEF73CFA0320FEF746
:10A8600039FA0120FEF72AFA974B14221A700024B5
:10A870009CE7934B1B78002B00F003810020FEF730
:10A8800029FA0120FEF726FA0320FEF723FA00201A
:10A89000FEF714FA0120FEF711FA8B4B15221A70FD
:10A8A000002483E7FEF738FA874B00241D707DE70C
:10A8B000FEF732FA844B0C221A70002476E78348A4
:10A8C000FCF7A4FF0446D5F1110000F0C580002C70
:10A8D00040F0C280012814D0C82505FB00F54FF4D4
:10A8E00000434FF4FA700021C3FB05014FF47A7264
:10A8F000002303F009FD224601467448FCF730FFAF
:10A9000004460220FEF7DAF96D4B01221A704DE77A
:10A910006B4B1B78002B00F0AE800020FEF7DAF9BD
:10A920000120FEF7D7F90320FEF7D4F9664B122277
:10A930001A7000243AE7624B1B78002B00F09380DA
:10A940000020FEF7C7F90120FEF7C4F90320FEF747
:10A95000C1F90020FEF7B2F95B4B13221A700024F4
:10A9600024E7574B1B78002B00F08E800020FEF769
:10A97000B1F90120FEF7AEF90320FEF7ABF951481B
:10A98000FCF744FF504B002204461A700EE70020EB
:10A99000FEF786F9002869D00020FEF79BF94FF4F6
:10A9A0000031494B474804241C700022BDE8384060
:10A9B000FCF7D6BE0020FEF773F900286CD000200B
:10A9C000FEF788F9022D4EF2666118BF4FF4003190
:10A9D0003D4B3C481D700022BDE83840FCF7C0BE2E
:10A9E0000020FEF7AFF9384B364806241C700022D1
:10A9F00040F6CD41BDE83840FCF7B2BE0020FEF77E
:10AA00004FF9002843D00020FEF764F946F2666152
:10AA10002D4B2C4803241C700022BDE83840FCF765
:10AA20009FBE0020FEF73CF900283FD00020FEF733
:10AA300051F9254B234805241C70002241F69A1138
:10AA4000BDE83840FCF78CBE0020FEF737F91E4BFE
:10AA500007221A700024A9E60220FEF73BF9184BE2
:10AA600000221A70A2E6FEF741F972E7FEF726F916
:10AA700043F2333195E7FEF739F957E7FEF736F938
:10AA8000EFE6FEF733F902E7FEF730F977E7FEF776
:10AA900015F941F69A11BBE7FEF710F943F233318D
:10AAA00041F69A13022D08BF194691E7FEF706F901
:10AAB000BFE700247AE600BF983500209C350020CF
:10AAC000293500206C350020A43500202C350020CD
:10AAD00038B5244B244A19608307106000F0010543
:10AAE00003D4CDB92C46204638BD204B20480E2437
:10AAF0000F2210211C701124DA7099715C7240F2DF
:10AB000066620421FCF7B8FA0446B8B115B1012019
:10AB1000FEF750F9204638BD0120FEF74BF9154AE3
:10AB200015480021FCF70AFE04460028F2D1134A1A
:10AB300013480121BDE83840FCF700BEFCF7F4FAE9
:10AB400004460028E2D101460E4A0F48FCF7F6FD04
:10AB50000446002DDED00120FEF72CF9002CD9D1BF
:10AB6000DDE700BFA0350020983500208C3500209F
:10AB70001CED0200A9A4020044ED0200D1A30200D2
:10AB80003CED020079A4020040ED0200032811D838
:10AB9000012A0BD0012919D00ED302290AD10E4B5C
:10ABA00000EB4000034400205A70704701290AD08E
:10ABB0000022EFE707207047074B00EB40000344FB
:10ABC00000209A70704700F10E02D2B200EB4003F1
:10ABD00001490020CA5470478C350020032813D83F
:10ABE00008B5FEF7E1F8800000F1A0430020D3F89B
:10ABF000002722F44032C3F80027D3F8002742F49C
:10AC00004032C3F8002708BD0620704710B50388FE
:10AC1000102B07D0112B04D1254B18680138186070
:10AC200030B110BD224C216881B10131216010BDCD
:10AC300001220221FFF7AAFF38B3072825D01D4BB8
:10AC40001B68002BEDD0BDE81040184701220846D4
:10AC5000FFF79CFF38B1072805D0164B1B6803B1DE
:10AC600098472168E1E7072202210120FFF78EFFC4
:10AC700008B10728F1D1042202210020FFF786FF46
:10AC80000028EED00728E8D1EBE7072202210120B7
:10AC9000FFF77CFF08B10728D1D1002108460A221E
:10ACA000FFF774FF0028BCD00728C8D110BD00BF33
:10ACB000B0350020AC35002008B50020FFF78EFF2E
:10ACC00010B1062800D008BD0120FFF787FF00283B
:10ACD000F9D0062808BF002008BD00BF184B10B5EA
:10ACE000186031B101200C46FFF754FDF8B1022382
:10ACF0002370144B186808B1002010BD01220221F6
:10AD0000FFF744FF08B10728F7D1072202210120ED
:10AD1000FFF73CFF08B10728EFD1002108460A22BF
:10AD2000FFF734FF0028E7D00728E5D010BDFFF774
:10AD300031FD08B92070DCE70B232370D9E700BF91
:10AD4000AC350020B035002076DF70477ADF7047E1
:10AD50007CDF70477FDF70478FDF7047B1DF704760
:10AD600033DF7047FCF7F6B910B50388103B82B0AB
:10AD70000446462B2FD8DFE803F042592E692E2EC9
:10AD80002E2E2E2E2E2E2E2E2E2E2E242E2E2E2EED
:10AD90002E2E2E2E2E2E2E2E2E2E2E2E2E2E2E2ED3
:10ADA0002E2E2E2E2E302E2E2E2E2E2E2E2E2E2EC1
:10ADB0002E2E2E2E2E2E2E2E2E2E2E2E382E2E2EA9
:10ADC000300002A9002321F8043D8088FFF7C4FF6A
:10ADD00008B1FCF7BFF902B010BD80881321FFF75E
:10ADE000B3FF0028F5D102B010BD1F4A0023108820
:10ADF00019461A46FFF7B2FF0028ECD0E9E71B4BD3
:10AE00001B481C49C01AC008000440F00300FBF7AF
:10AE1000F3FB0720FFF7C4FC10BB134BA1881648B7
:10AE2000198001F07FFE0028D5D0D2E70F4B1048E3
:10AE30001249C01AC008000440F00300FBF7DCFB15
:10AE4000094B4FF6FF721A8002B010BD064A00236C
:10AE5000108885211A46FFF77DFF0028BBD0B8E790
:10AE6000FCF778F9D9E700BFBE2A00209CF4020065
:10AE7000C4F4020060ED02001C3900206CED0200F9
:10AE80000E4B4A881B889A4200D070470A8840F6C9
:10AE900077239A42F9D130B4094B0A488C880A4D7D
:10AEA0000A49C01A033CC008A4B200042346224643
:10AEB0002C8040F0030030BCFBF7CCBDBE2A002044
:10AEC0009CF40200C4F40200BC2A00207CED0200C5
:10AED00008B5037803B108BD054B3B211888FFF77F
:10AEE00033FF0028F7D0BDE80840FCF733B900BFB6
:10AEF000BE2A0020072808B51CD00A280ED0042836
:10AF000000D008BD154B13211888FFF71DFF30F046
:10AF10000803F6D0BDE80840FCF71CB90020FFF795
:10AF20003FFCB8B9FFF7C8FE88B9FFF719FF002842
:10AF3000F0D108BD094B1A884FF6FF739A42E0D151
:10AF4000074801F0E7F830F00803E3D108BDFCF74B
:10AF500001F9EAE7FCF7FEF8E4E700BFBE2A0020AB
:10AF6000AC360020F0B50378012B83B002D006D3B5
:10AF7000022B02D14068FCF7EDF803B0F0BD194C8C
:10AF8000194D20782844FCF77FFD22780132D2B297
:10AF90001544227015F8013C0A2B05D00D2B03D067
:10AFA000124B1B889342E8D8012A12D9104F0E4E3B
:10AFB000104DADF806203B880DF1060231462846BB
:10AFC00001F04CFF082804D0132806D0052800D033
:10AFD00028B90023237003B0F0BD2278E9E7FCF71D
:10AFE000B9F8F6E7A8360020B4350020BC2A0020C6
:10AFF000BE2A0020C02A00202DE9F0410578FDB9C5
:10B00000838A06464BB3164F164BDFF85C80FF1A57
:10B01000FF083F0447F001073369585DFCF762FD04
:10B02000044678B9B38A0135AB42F5D8013B3269A1
:10B03000D35C0D2B04D10A20FCF754FD1128FAD063
:10B04000BDE8F081112C024641463846E4D0FBF7BA
:10B0500081FC2046FCF77EF8E4E74FF0FF33E6E79B
:10B06000C4F402009CF40200E4ED0200FCF772B8A4
:10B0700008B530B1032803D10220FFF791FB50B986
:10B0800008BDFFF78DFB50B9FFF716FE68B9FFF753
:10B0900067FE0028F4D0BDE80840FCF75BB8FCF779
:10B0A00059F8FFF709FE0028F1D0FCF753F8EEE756
:10B0B00008B50949094801F0DBFB48B9F721074801
:10B0C00001F0EEFB00B908BDBDE80840FCF742B84E
:10B0D000FCF740F8F2E700BF81AE0200043900201F
:10B0E00000B5744D744BB1B005AC01930FCD0FC4D6
:10B0F00095E803004FF4807384E8030002936F4CDB
:10B10000049301A905A86E4A03940723FCF742FCA7
:10B1100008B1FCF71FF84FF400410020FBF70CFAD0
:10B1200008B1FCF717F8FBF78DF9FCF7B3FA08B193
:10B13000FCF710F863490320FFF7CAFC08B1FCF7DD
:10B1400009F805A90020FFF7C9FD08B1FCF702F8CE
:10B15000FDF716FB08B1FBF7FDFF01F0B5FE08B1E6
:10B16000FBF7F8FF002305A90120059301F08AFFF2
:10B1700008B1FBF7EFFF05A802F062F808B1FBF792
:10B18000E9FF112350488DF8043002F05BF94E4975
:10B1900082B201A8FFF7DCFD08B1FBF7DBFF082254
:10B1A000002105A802F025F9484B059305A84FF0AA
:10B1B000C8730693FFF7CAFD08B1FBF7CBFFFFF793
:10B1C00077FF434B4348059305A901F099FC08B16B
:10B1D000FBF7C0FF042200210DEB020002F009F989
:10B1E0003D4B3E48019301A901F0CAFD08B1FBF7B0
:10B1F000B1FFAC22002105A802F0FBF802240021D7
:10B20000052237488DF81440012340258DF816108B
:10B2100044F250648DF817201990324A3248ADF844
:10B22000603005A98DF89030CDE927542E9200F0BA
:10B2300045FD08B1FBF78EFF01212B4800F03AFDD8
:10B240001C22002105A802F0D4F80023274A059308
:10B25000ADF822308DF82430254B4FF420354FF4D3
:10B260007024032105A8CDE906548DF82010CDE9FE
:10B270000A2301F0B1F808B1FBF76CFF1D4802F09A
:10B28000C1F81D4B1D481E49C01AC008000440F0FB
:10B290000300FBF7B1F90321134800F08FFD08B15B
:10B2A000FBF758FFFBF758FC0028FBD1FDF77EFAAF
:10B2B000F8E700BF48ED020028390020283A0020B6
:10B2C00065AF0200F5AE020098ED020010003C00F0
:10B2D00065AD02001C390020F9AF0200C02A002031
:10B2E000B82A002071B00200AC360020D1AE0200B6
:10B2F0006DB00200A4ED02009CF40200C4F4020050
:10B30000B8ED02002DE9F84F4400DFF85CB12618D3
:10B310000BEBC6068146F76A012F8A46904667D036
:10B320003DD3022F30D100F1010909EB4909756ABB
:10B330004FEAC9090027B36A346AAB4203F1FF320E
:10B340009CBF1B1903F1FF33A4EB05048CBF531BF7
:10B350005B1B0BEB0902444528BF44469C425068E6
:10B3600028BF1C4628445146224602F037F8336A6B
:10B3700025449D422744A8EB0408A24408D07562E6
:10B38000B8F1000FD7D100E000273846BDE8F88FAC
:10B3900000231D467362B8F1000FCCD1F5E7B36A04
:10B3A000756AAB429CBF326A9B18013B5B1B984598
:10B3B000EBD8044400F101090BEBC40409EB490983
:10B3C0000BEBC90B266ADBF80400761BB04528445A
:10B3D00043D33246A8EB060502F000F80AEB06015B
:10B3E000DBF804002A4601F0F9FF47466562CCE726
:10B3F000D6E90825B76AAF4298BFBF18461C013F7F
:10B4000006EB46067F1B0BEBC606474528BF4746A3
:10B410007068A2EB05084745284412D3A144424670
:10B42000A7EB08050BEBC90B01F0D8FF0AEB0801ED
:10B4300070682A4601F0D2FFCBF824503846BDE8A8
:10B44000F88FA1440BEBC90B3A463D4401F0C6FF0F
:10B45000CBF824503846BDE8F88F4246454401F009
:10B46000BDFF4746656290E7283E002038B5114C85
:10B47000114B1248E36110254FF40073104A114933
:10B480002362E06400232565E01D0225A362636258
:10B49000E362A3656365E365A261A264C4E9045540
:10B4A00001F0C8FF2046084901F0C4FF2023A37122
:10B4B00038BD00BF283E0020383B0020283B00203C
:10B4C00010EE02001CEE020020EE02006DDF70475D
:10B4D00079DF70477DDF704764DF70472DE9F04FFB
:10B4E00083B004880C9EBDF83490B6F800A0002C00
:10B4F00039D09846002317468B4605461C4603E084
:10B500002A880134A24224DD6A6852F8240001909E
:10B5100000220DF1030101A8FFF7DEFF20BB9DF81B
:10B520000320BA42ECD13288B91803B389452BDB2A
:10B5300042440DF1030101A80123FFF7CDFF98B9A3
:10B5400031889DF803200A4432802A880134A242BF
:10B55000DADC43B13388013BA3EB0A039BB2FF2B38
:10B5600012D808F80A30002003B0BDE8F08F02318D
:10B570000132894592B207DB328008F802B0328886
:10B58000013292B23280D3E70C2003B0BDE8F08FD5
:10B590002DE9F04700231788138090F82D3086B0EE
:10B5A000144605460E46002B40F0FB80AA78002A80
:10B5B00040F0FD80EA78A2B1D91CB94200F2F380D4
:10B5C0000221F154238801339BB201212380F154DD
:10B5D00023880B449BB22380F25423880B449BB2F4
:10B5E00023806A68AAB1D91CB94200F2DC8002212A
:10B5F00092F90020F154238801339BB20A21238061
:10B60000F154238801339BB22380F2542388013301
:10B6100023802B89002B40F01B812B8A002B40F0CC
:10B620002F812B8B002B40F043812B6A002B44D0C1
:10B630002288911DB94200F2B6801988052940F28E
:10B6400003816FF4486801EB080080B24FF27D3C43
:10B65000604540F2F9805888052840F2F5806FF483
:10B66000486E86441FFA8EFEE64540F2ED804FF6A6
:10B67000FF7C614504D0604502D0814200F2E48045
:10B680000521B1542288013292B212212280B15494
:10B690002288013292B222801988B1543244090AB8
:10B6A00051702288023292B222805B88B3543244B5
:10B6B0001B0A53702388023323806B6A002B2FD020
:10B6C0009988B4F800C0881C0CF102020244BA4206
:10B6D00069D8FE2867D8033106F80C102288013299
:10B6E00092B2FF212280B1542288013292B222808C
:10B6F0001988B1543244090A51702088023080B24E
:10B7000020809A8862B199680393002900F09C8098
:10B71000304401F063FE039B9A88238813442380FE
:10B7200095F82C30002B40F08A80287800283BD0F8
:10B730002B88012B00F08880228802F1020CBC4586
:10B7400031D8012804D16B78023313449F422AD3A5
:10B75000BB1E9B1A06A99BB221F8083D06EB0C0004
:10B76000FFF7B8FE00BB2978BDF81020022900F0D1
:10B77000048168789042C0F0FB809342C0F0F8806A
:10B780000921FE2A0FD82388501CF0542388013346
:10B790009BB22380F154238801331A442280002075
:10B7A00002E0082F23D80C2006B0BDE8F087043350
:10B7B000BB42F8D804A8FFF78BFE0028F4D12388F9
:10B7C000BDF810200321F154238801339BB21921C5
:10B7D0002380F154238801339BB2F1182380F25463
:10B7E000120A4A70238802339BB22380E2E604A83F
:10B7F000FFF76CFE0028D7D113880822CA5423888B
:10B8000001339BB21B222380CA542088013080B2AE
:10B810002080062208440DF1110101F0DFFD23888C
:10B820009DF8102006339BB212F0FE0218BF0122D1
:10B830002380F254238801339BB22380B6E6D5F8E7
:10B840002880B8F1000F4CD1072006B0BDE8F08782
:10B8500005F108080222CDE900474046114633466B
:10B86000FFF73CFE00289FD1CDE900474046334614
:10B8700010220621FFF732FE00283FF4CEAE93E7F8
:10B8800005F11008CDE90047404633460222032166
:10B89000FFF724FE002887D1CDE900474046334614
:10B8A00010220721FFF71AFE00283FF4BAAE7BE70B
:10B8B00005F11808CDE9004740463346022214211D
:10B8C000FFF70CFE00287FF46FAFCDE9004740463C
:10B8D000334610221521FFF701FE00283FF4A5AEE4
:10B8E00062E7B8F804200232FE2A3FF65CAF2388F4
:10B8F0004FF000094FF0160A0132F2542388013349
:10B900009BB2238006F803A0238801339BB22380D7
:10B91000B8F80020F2543344120A5A7023880233D4
:10B920009BB22380B8F80410F0180A4661B1D8F829
:10B9300008301946002B87D001F050FDB8F80420DC
:10B94000238813449BB2238009F1010995F82C2028
:10B950005FFA89F94A4509EB49087FF6E6AEAA6A1B
:10B9600002EB8808B8F804200232FE2AC4D91AE78C
:10B97000012906D01A46082103E79342BFF400AF1D
:10B98000F8E78342F6D302460821FAE6F8B130B46C
:10B99000437893421CD0B9B10024234601E0994278
:10B9A00012D9045D013423449BB2C5181C466D783E
:10B9B0009542F4D1994207D9025D0233012A9BB224
:10B9C00002D0184430BC7047002030BC704770472C
:10B9D00000242346EEE700BF72DF704773DF704735
:10B9E00074DF704770B5044600F24A2681700D4638
:10B9F00030460722002101F0FCFCE38813B1A37854
:10BA0000012B6AD0E379002B64D194F84B32002BE0
:10BA100074D194F84C32002B70D194F84D32002B35
:10BA20006CD194F84E32002B68D194F84F32002B31
:10BA300064D194F850321A1C18BF01226B1E032BDC
:10BA400000F23681DFE803F002530A0DA379002BE0
:10BA50004DD094F82430002B49D12AB9237A002BF9
:10BA600064D1657A002D4DD1A570002384F853323E
:10BA700004F13C0518220021284601F0BAFCE26AD4
:10BA80000123511E994284F83C3012D994F82420A5
:10BA900084F8513092B184F85230A378002284F8AF
:10BAA0005020042B00F2F380DFE803F067426BAA1A
:10BAB0007B0094F8243084F851200BBBA37800223B
:10BAC00084F85020042B00F2E280DFE803F05631C6
:10BAD000D1C5CB00A378022B97D1636B002B00F06C
